{
  "contractName": "File",
  "abi": [
    {
      "constant": true,
      "inputs": [],
      "name": "testFile",
      "outputs": [
        {
          "internalType": "string",
          "name": "",
          "type": "string"
        },
        {
          "internalType": "string",
          "name": "",
          "type": "string"
        },
        {
          "internalType": "address[]",
          "name": "",
          "type": "address[]"
        }
      ],
      "payable": false,
      "stateMutability": "view",
      "type": "function"
    }
  ],
  "bytecode": "0x608060405234801561001057600080fd5b5061024e806100206000396000f3fe608060405234801561001057600080fd5b506004361061002b5760003560e01c8063cfb3302614610030575b600080fd5b610038610167565b60405180806020018060200180602001848103845287818151815260200191508051906020019080838360005b83811015610080578082015181840152602081019050610065565b50505050905090810190601f1680156100ad5780820380516001836020036101000a031916815260200191505b50848103835286818151815260200191508051906020019080838360005b838110156100e65780820151818401526020810190506100cb565b50505050905090810190601f1680156101135780820380516001836020036101000a031916815260200191505b50848103825285818151815260200191508051906020019060200280838360005b8381101561014f578082015181840152602081019050610134565b50505050905001965050505050505060405180910390f35b6060806060600060405190808252806020026020018201604052801561019c5781602001602082028038833980820191505090505b506040518060400160405280600c81526020017f626c6f6f64207465737420310000000000000000000000000000000000000000815250906040518060400160405280600a81526020017f626c6f6f642074657374000000000000000000000000000000000000000000008152509080905092509250925090919256fea265627a7a72315820fb447640efa86d58640b24d5c7ecd2b130d603dee8a24f1787d2d151df32f75664736f6c63430005100032",
  "source": "pragma solidity >=0.4.25 <0.7.0;\n\n// File contract\ncontract File {\n\n    mapping (bytes32 => file) internal fileHashDict;\n    \n    struct file {\n        string file_name;\n        string record_type;\n        address uploader;\n    }\n\n    // method to test file contract\n    function testFile() public view returns(string memory, string memory, address[] memory){\n        return (\"blood test 1\", \"blood test\",new address[](0));\n    }\n\n    // make sure a file actually exists\n    modifier checkFile(bytes32 file_hash) {\n        bytes memory file_check = bytes(fileHashDict[file_hash].file_name);\n        require(file_check.length > 0);\n        _;\n    }\n\n    // given a file hash, \n    function getFileInfo(bytes32 file_hash) internal view checkFile(file_hash) returns(file memory ) {\n        return fileHashDict[file_hash];\n    }\n}",
  "sourcePath": "/Users/kevincai/Desktop/UCL/Dartmouth/Classes/SeniorDesignAndImplementationProject/decentralized-health-blockchain/contracts/File.sol",
  "compiler": {
    "name": "solc",
    "version": "0.5.16+commit.9c3226ce.Emscripten.clang"
  },
  "schemaVersion": "3.4.3",
  "updatedAt": "2021-10-31T21:03:58.802Z",
  "devdoc": {
    "methods": {}
  },
  "userdoc": {
    "methods": {}
  }
}