{
  "contractName": "Patient",
  "abi": [
    {
      "constant": true,
      "inputs": [],
      "name": "getPatientInfo",
      "outputs": [
        {
          "internalType": "string",
          "name": "",
          "type": "string"
        },
        {
          "internalType": "uint8",
          "name": "",
          "type": "uint8"
        },
        {
          "internalType": "bytes32[]",
          "name": "",
          "type": "bytes32[]"
        },
        {
          "internalType": "address[]",
          "name": "",
          "type": "address[]"
        }
      ],
      "payable": false,
      "stateMutability": "view",
      "type": "function"
    },
    {
      "constant": false,
      "inputs": [
        {
          "internalType": "string",
          "name": "_name",
          "type": "string"
        },
        {
          "internalType": "uint8",
          "name": "_age",
          "type": "uint8"
        }
      ],
      "name": "signupPatient",
      "outputs": [
        {
          "internalType": "string",
          "name": "",
          "type": "string"
        },
        {
          "internalType": "uint8",
          "name": "",
          "type": "uint8"
        },
        {
          "internalType": "address",
          "name": "",
          "type": "address"
        },
        {
          "internalType": "bytes32[]",
          "name": "",
          "type": "bytes32[]"
        },
        {
          "internalType": "address[]",
          "name": "",
          "type": "address[]"
        }
      ],
      "payable": false,
      "stateMutability": "nonpayable",
      "type": "function"
    }
  ],
  "bytecode": "0x608060405234801561001057600080fd5b506112bc806100206000396000f3fe608060405234801561001057600080fd5b50600436106100365760003560e01c8063326df6641461003b5780637120203a1461015b575b600080fd5b61004361036c565b60405180806020018560ff1660ff1681526020018060200180602001848103845288818151815260200191508051906020019080838360005b8381101561009757808201518184015260208101905061007c565b50505050905090810190601f1680156100c45780820380516001836020036101000a031916815260200191505b50848103835286818151815260200191508051906020019060200280838360005b838110156101005780820151818401526020810190506100e5565b50505050905001848103825285818151815260200191508051906020019060200280838360005b83811015610142578082015181840152602081019050610127565b5050505090500197505050505050505060405180910390f35b6102216004803603604081101561017157600080fd5b810190808035906020019064010000000081111561018e57600080fd5b8201836020820111156101a057600080fd5b803590602001918460018302840111640100000000831117156101c257600080fd5b91908080601f016020809104026020016040519081016040528093929190818152602001838380828437600081840152601f19601f820116905080830192505050505050509192919290803560ff16906020019092919050505061087b565b60405180806020018660ff1660ff1681526020018573ffffffffffffffffffffffffffffffffffffffff1673ffffffffffffffffffffffffffffffffffffffff1681526020018060200180602001848103845289818151815260200191508051906020019080838360005b838110156102a757808201518184015260208101905061028c565b50505050905090810190601f1680156102d45780820380516001836020036101000a031916815260200191505b50848103835286818151815260200191508051906020019060200280838360005b838110156103105780820151818401526020810190506102f5565b50505050905001848103825285818151815260200191508051906020019060200280838360005b83811015610352578082015181840152602081019050610337565b505050509050019850505050505050505060405180910390f35b606060006060803361037c61105b565b6000808373ffffffffffffffffffffffffffffffffffffffff1673ffffffffffffffffffffffffffffffffffffffff1681526020019081526020016000206040518060a0016040529081600082018054600181600116156101000203166002900480601f01602080910402602001604051908101604052809291908181526020018280546001816001161561010002031660029004801561045e5780601f106104335761010080835404028352916020019161045e565b820191906000526020600020905b81548152906001019060200180831161044157829003601f168201915b505050505081526020016001820160009054906101000a900460ff1660ff1660ff1681526020016001820160019054906101000a900473ffffffffffffffffffffffffffffffffffffffff1673ffffffffffffffffffffffffffffffffffffffff1673ffffffffffffffffffffffffffffffffffffffff1681526020016002820180548060200260200160405190810160405280929190818152602001828054801561052957602002820191906000526020600020905b815481526020019060010190808311610515575b50505050508152602001600382018054806020026020016040519081016040528092919081815260200182805480156105b757602002820191906000526020600020905b8160009054906101000a900473ffffffffffffffffffffffffffffffffffffffff1673ffffffffffffffffffffffffffffffffffffffff168152602001906001019080831161056d575b5050505050815250509050600073ffffffffffffffffffffffffffffffffffffffff16816040015173ffffffffffffffffffffffffffffffffffffffff16116105ff57600080fd5b61060761105b565b6000803373ffffffffffffffffffffffffffffffffffffffff1673ffffffffffffffffffffffffffffffffffffffff1681526020019081526020016000206040518060a0016040529081600082018054600181600116156101000203166002900480601f0160208091040260200160405190810160405280929190818152602001828054600181600116156101000203166002900480156106e95780601f106106be576101008083540402835291602001916106e9565b820191906000526020600020905b8154815290600101906020018083116106cc57829003601f168201915b505050505081526020016001820160009054906101000a900460ff1660ff1660ff1681526020016001820160019054906101000a900473ffffffffffffffffffffffffffffffffffffffff1673ffffffffffffffffffffffffffffffffffffffff1673ffffffffffffffffffffffffffffffffffffffff168152602001600282018054806020026020016040519081016040528092919081815260200182805480156107b457602002820191906000526020600020905b8154815260200190600101908083116107a0575b505050505081526020016003820180548060200260200160405190810160405280929190818152602001828054801561084257602002820191906000526020600020905b8160009054906101000a900473ffffffffffffffffffffffffffffffffffffffff1673ffffffffffffffffffffffffffffffffffffffff16815260200190600101908083116107f8575b50505050508152505090508060000151816020015182606001518360800151839350819150809050965096509650965050505090919293565b606060008060608061088b61105b565b6000803373ffffffffffffffffffffffffffffffffffffffff1673ffffffffffffffffffffffffffffffffffffffff1681526020019081526020016000206040518060a0016040529081600082018054600181600116156101000203166002900480601f01602080910402602001604051908101604052809291908181526020018280546001816001161561010002031660029004801561096d5780601f106109425761010080835404028352916020019161096d565b820191906000526020600020905b81548152906001019060200180831161095057829003601f168201915b505050505081526020016001820160009054906101000a900460ff1660ff1660ff1681526020016001820160019054906101000a900473ffffffffffffffffffffffffffffffffffffffff1673ffffffffffffffffffffffffffffffffffffffff1673ffffffffffffffffffffffffffffffffffffffff16815260200160028201805480602002602001604051908101604052809291908181526020018280548015610a3857602002820191906000526020600020905b815481526020019060010190808311610a24575b5050505050815260200160038201805480602002602001604051908101604052809291908181526020018280548015610ac657602002820191906000526020600020905b8160009054906101000a900473ffffffffffffffffffffffffffffffffffffffff1673ffffffffffffffffffffffffffffffffffffffff1681526020019060010190808311610a7c575b5050505050815250509050600073ffffffffffffffffffffffffffffffffffffffff16816040015173ffffffffffffffffffffffffffffffffffffffff161115610b0f57600080fd5b6040518060000190506040518091039020886040516020018082805190602001908083835b60208310610b575780518252602082019150602081019050602083039250610b34565b6001836020036101000a038019825116818451168082178552505050505050905001915050604051602081830303815290604052805190602001201415610b9d57600080fd5b60008760ff16118015610bb3575060788760ff16105b610bbc57600080fd5b6040518060a001604052808981526020018860ff1681526020013373ffffffffffffffffffffffffffffffffffffffff1681526020016000604051908082528060200260200182016040528015610c225781602001602082028038833980820191505090505b5081526020016000604051908082528060200260200182016040528015610c585781602001602082028038833980820191505090505b508152506000803373ffffffffffffffffffffffffffffffffffffffff1673ffffffffffffffffffffffffffffffffffffffff1681526020019081526020016000206000820151816000019080519060200190610cb69291906110a3565b5060208201518160010160006101000a81548160ff021916908360ff16021790555060408201518160010160016101000a81548173ffffffffffffffffffffffffffffffffffffffff021916908373ffffffffffffffffffffffffffffffffffffffff1602179055506060820151816002019080519060200190610d3b929190611123565b506080820151816003019080519060200190610d58929190611170565b509050506000803373ffffffffffffffffffffffffffffffffffffffff1673ffffffffffffffffffffffffffffffffffffffff1681526020019081526020016000206000016000803373ffffffffffffffffffffffffffffffffffffffff1673ffffffffffffffffffffffffffffffffffffffff16815260200190815260200160002060010160009054906101000a900460ff166000803373ffffffffffffffffffffffffffffffffffffffff1673ffffffffffffffffffffffffffffffffffffffff16815260200190815260200160002060010160019054906101000a900473ffffffffffffffffffffffffffffffffffffffff166000803373ffffffffffffffffffffffffffffffffffffffff1673ffffffffffffffffffffffffffffffffffffffff1681526020019081526020016000206002016000803373ffffffffffffffffffffffffffffffffffffffff1673ffffffffffffffffffffffffffffffffffffffff168152602001908152602001600020600301848054600181600116156101000203166002900480601f016020809104026020016040519081016040528092919081815260200182805460018160011615610100020316600290048015610f655780601f10610f3a57610100808354040283529160200191610f65565b820191906000526020600020905b815481529060010190602001808311610f4857829003601f168201915b5050505050945081805480602002602001604051908101604052809291908181526020018280548015610fb757602002820191906000526020600020905b815481526020019060010190808311610fa3575b505050505091508080548060200260200160405190810160405280929190818152602001828054801561103f57602002820191906000526020600020905b8160009054906101000a900473ffffffffffffffffffffffffffffffffffffffff1673ffffffffffffffffffffffffffffffffffffffff1681526020019060010190808311610ff5575b5050505050905095509550955095509550509295509295909350565b6040518060a0016040528060608152602001600060ff168152602001600073ffffffffffffffffffffffffffffffffffffffff16815260200160608152602001606081525090565b828054600181600116156101000203166002900490600052602060002090601f016020900481019282601f106110e457805160ff1916838001178555611112565b82800160010185558215611112579182015b828111156111115782518255916020019190600101906110f6565b5b50905061111f91906111fa565b5090565b82805482825590600052602060002090810192821561115f579160200282015b8281111561115e578251825591602001919060010190611143565b5b50905061116c919061121f565b5090565b8280548282559060005260206000209081019282156111e9579160200282015b828111156111e85782518260006101000a81548173ffffffffffffffffffffffffffffffffffffffff021916908373ffffffffffffffffffffffffffffffffffffffff16021790555091602001919060010190611190565b5b5090506111f69190611244565b5090565b61121c91905b80821115611218576000816000905550600101611200565b5090565b90565b61124191905b8082111561123d576000816000905550600101611225565b5090565b90565b61128491905b8082111561128057600081816101000a81549073ffffffffffffffffffffffffffffffffffffffff02191690555060010161124a565b5090565b9056fea265627a7a7231582017e3d04637c9dd9fdc13bb50c8a7d8555c4418ba93d48076dd18e358b024e5d664736f6c63430005100032",
  "source": "// CONSIDERATION: DO WE WANT TO HAVE PATIENTS UNDER SPECIFIC INSTITUTIONS?\npragma solidity >=0.4.25 <0.7.0;\n\ncontract Patient {\n\n    mapping (address => patient) internal patients; // dictionary of all patients\n    mapping (address => mapping (address => uint)) internal patientToDoctor; // dictionary mapping patient to doctor\n    mapping (address => mapping (bytes32 => uint)) internal patientToFile; // dictionary mapping patient to files\n    \n    struct patient {\n        string name;\n        uint8 age;\n        address addr;\n        bytes32[] files; // hashes of file that belong to this user for display purpose\n        address[] doctor_list;\n    }\n\n    // check that a given patient actually exists\n    modifier checkPatient(address addr) {\n        patient memory p = patients[addr];\n        require(p.addr > address(0x0));\n        _;\n    }\n\n    // get info for a given patient (name, age, files, list of whitelisted doctors)\n    function getPatientInfo() public view checkPatient(msg.sender) returns(string memory, uint8, bytes32[] memory, address[] memory) {\n        patient memory p = patients[msg.sender];\n        return (p.name, p.age, p.files, p.doctor_list);\n    }\n\n    // add a new patient\n    function signupPatient(string memory _name, uint8 _age) public returns(string memory, uint8, address, bytes32[] memory, address[] memory) {\n        // store msg.sender as a patient in memory\n        patient memory p = patients[msg.sender];\n        // make sure a patient with this addr doesn't already exist\n        require(!(p.addr > address(0x0)));\n\n        // check to make sure the patient has a valid name and age\n        require(keccak256(abi.encodePacked(_name)) != keccak256(\"\"));\n        require((_age > 0) && (_age < 120));\n\n        // add to patient dict\n        patients[msg.sender] = patient({name:_name,age:_age,addr:msg.sender,files:new bytes32[](0),doctor_list:new address[](0)});\n        return (patients[msg.sender].name, patients[msg.sender].age, patients[msg.sender].addr, patients[msg.sender].files, patients[msg.sender].doctor_list);\n    }\n}",
  "sourcePath": "/Users/kevincai/Desktop/UCL/Dartmouth/Classes/SeniorDesignAndImplementationProject/decentralized-health-blockchain/contracts/Patient.sol",
  "compiler": {
    "name": "solc",
    "version": "0.5.16+commit.9c3226ce.Emscripten.clang"
  },
  "schemaVersion": "3.4.3",
  "updatedAt": "2021-10-31T21:03:58.804Z",
  "devdoc": {
    "methods": {}
  },
  "userdoc": {
    "methods": {}
  }
}