{
  "contractName": "Service",
  "abi": [
    {
      "inputs": [],
      "payable": false,
      "stateMutability": "nonpayable",
      "type": "constructor"
    },
    {
      "constant": true,
      "inputs": [],
      "name": "getDoctorInfo",
      "outputs": [
        {
          "internalType": "string",
          "name": "",
          "type": "string"
        },
        {
          "internalType": "address[]",
          "name": "",
          "type": "address[]"
        },
        {
          "internalType": "address",
          "name": "",
          "type": "address"
        }
      ],
      "payable": false,
      "stateMutability": "view",
      "type": "function"
    },
    {
      "constant": false,
      "inputs": [
        {
          "internalType": "string",
          "name": "_name",
          "type": "string"
        },
        {
          "internalType": "string",
          "name": "_clinic",
          "type": "string"
        }
      ],
      "name": "signupDoctor",
      "outputs": [
        {
          "internalType": "string",
          "name": "",
          "type": "string"
        },
        {
          "internalType": "address",
          "name": "",
          "type": "address"
        },
        {
          "internalType": "address[]",
          "name": "",
          "type": "address[]"
        },
        {
          "internalType": "string",
          "name": "",
          "type": "string"
        }
      ],
      "payable": false,
      "stateMutability": "nonpayable",
      "type": "function"
    },
    {
      "constant": false,
      "inputs": [
        {
          "internalType": "string",
          "name": "_file_contents",
          "type": "string"
        },
        {
          "internalType": "string",
          "name": "_file_name",
          "type": "string"
        }
      ],
      "name": "testFile",
      "outputs": [
        {
          "internalType": "bytes32",
          "name": "",
          "type": "bytes32"
        },
        {
          "internalType": "string",
          "name": "",
          "type": "string"
        }
      ],
      "payable": false,
      "stateMutability": "nonpayable",
      "type": "function"
    },
    {
      "constant": true,
      "inputs": [
        {
          "internalType": "string",
          "name": "file_contents",
          "type": "string"
        }
      ],
      "name": "getFileHash",
      "outputs": [
        {
          "internalType": "bytes32",
          "name": "",
          "type": "bytes32"
        }
      ],
      "payable": false,
      "stateMutability": "pure",
      "type": "function"
    },
    {
      "constant": true,
      "inputs": [
        {
          "internalType": "bytes32",
          "name": "file_hash",
          "type": "bytes32"
        }
      ],
      "name": "getFileName",
      "outputs": [
        {
          "internalType": "string",
          "name": "",
          "type": "string"
        }
      ],
      "payable": false,
      "stateMutability": "view",
      "type": "function"
    },
    {
      "constant": true,
      "inputs": [],
      "name": "getPatientInfo",
      "outputs": [
        {
          "internalType": "string",
          "name": "",
          "type": "string"
        },
        {
          "internalType": "uint8",
          "name": "",
          "type": "uint8"
        },
        {
          "internalType": "bytes32[]",
          "name": "",
          "type": "bytes32[]"
        },
        {
          "internalType": "address[]",
          "name": "",
          "type": "address[]"
        }
      ],
      "payable": false,
      "stateMutability": "view",
      "type": "function"
    },
    {
      "constant": false,
      "inputs": [
        {
          "internalType": "string",
          "name": "_name",
          "type": "string"
        },
        {
          "internalType": "uint8",
          "name": "_age",
          "type": "uint8"
        }
      ],
      "name": "signupPatient",
      "outputs": [
        {
          "internalType": "string",
          "name": "",
          "type": "string"
        },
        {
          "internalType": "uint8",
          "name": "",
          "type": "uint8"
        },
        {
          "internalType": "address",
          "name": "",
          "type": "address"
        },
        {
          "internalType": "bytes32[]",
          "name": "",
          "type": "bytes32[]"
        },
        {
          "internalType": "address[]",
          "name": "",
          "type": "address[]"
        }
      ],
      "payable": false,
      "stateMutability": "nonpayable",
      "type": "function"
    },
    {
      "constant": true,
      "inputs": [],
      "name": "testService",
      "outputs": [
        {
          "internalType": "address",
          "name": "",
          "type": "address"
        }
      ],
      "payable": false,
      "stateMutability": "view",
      "type": "function"
    },
    {
      "constant": false,
      "inputs": [
        {
          "internalType": "string",
          "name": "_file_name",
          "type": "string"
        },
        {
          "internalType": "string",
          "name": "_file_type",
          "type": "string"
        },
        {
          "internalType": "address",
          "name": "_patient_addr",
          "type": "address"
        },
        {
          "internalType": "string",
          "name": "_contents",
          "type": "string"
        }
      ],
      "name": "addFile",
      "outputs": [],
      "payable": false,
      "stateMutability": "nonpayable",
      "type": "function"
    },
    {
      "constant": false,
      "inputs": [
        {
          "internalType": "address",
          "name": "_doctor_address",
          "type": "address"
        }
      ],
      "name": "grantDoctorAccess",
      "outputs": [],
      "payable": false,
      "stateMutability": "nonpayable",
      "type": "function"
    },
    {
      "constant": true,
      "inputs": [
        {
          "internalType": "address",
          "name": "_patient_requested",
          "type": "address"
        }
      ],
      "name": "getPatientInfoForDoctor",
      "outputs": [
        {
          "internalType": "string",
          "name": "",
          "type": "string"
        },
        {
          "internalType": "uint8",
          "name": "",
          "type": "uint8"
        },
        {
          "internalType": "bytes32[]",
          "name": "",
          "type": "bytes32[]"
        }
      ],
      "payable": false,
      "stateMutability": "view",
      "type": "function"
    },
    {
      "constant": true,
      "inputs": [
        {
          "internalType": "address",
          "name": "_doctor_requested",
          "type": "address"
        }
      ],
      "name": "getDoctorInfoForPatient",
      "outputs": [
        {
          "internalType": "string",
          "name": "",
          "type": "string"
        },
        {
          "internalType": "string",
          "name": "",
          "type": "string"
        }
      ],
      "payable": false,
      "stateMutability": "view",
      "type": "function"
    }
  ],
  "bytecode": "0x608060405234801561001057600080fd5b5033600660006101000a81548173ffffffffffffffffffffffffffffffffffffffff021916908373ffffffffffffffffffffffffffffffffffffffff160217905550614e6a806100616000396000f3fe608060405234801561001057600080fd5b50600436106100b45760003560e01c80638b35bb88116100715780638b35bb88146107d0578063b380f5c61461081a578063bb56df8714610918578063f308701c14610bca578063f880680b14610dd3578063fe59cc1a14610ea2576100b4565b80630fcd3730146100b957806312e0808f14610160578063326df664146101a457806354f509b3146102c45780636da1ca66146103ed5780637120203a146105bf575b600080fd5b6100e5600480360360208110156100cf57600080fd5b8101908080359060200190929190505050610fb4565b6040518080602001828103825283818151815260200191508051906020019080838360005b8381101561012557808201518184015260208101905061010a565b50505050905090810190601f1680156101525780820380516001836020036101000a031916815260200191505b509250505060405180910390f35b6101a26004803603602081101561017657600080fd5b81019080803573ffffffffffffffffffffffffffffffffffffffff169060200190929190505050611130565b005b6101ac6118e2565b60405180806020018560ff1660ff1681526020018060200180602001848103845288818151815260200191508051906020019080838360005b838110156102005780820151818401526020810190506101e5565b50505050905090810190601f16801561022d5780820380516001836020036101000a031916815260200191505b50848103835286818151815260200191508051906020019060200280838360005b8381101561026957808201518184015260208101905061024e565b50505050905001848103825285818151815260200191508051906020019060200280838360005b838110156102ab578082015181840152602081019050610290565b5050505090500197505050505050505060405180910390f35b610306600480360360208110156102da57600080fd5b81019080803573ffffffffffffffffffffffffffffffffffffffff169060200190929190505050611df3565b604051808060200180602001838103835285818151815260200191508051906020019080838360005b8381101561034a57808201518184015260208101905061032f565b50505050905090810190601f1680156103775780820380516001836020036101000a031916815260200191505b50838103825284818151815260200191508051906020019080838360005b838110156103b0578082015181840152602081019050610395565b50505050905090810190601f1680156103dd5780820380516001836020036101000a031916815260200191505b5094505050505060405180910390f35b61053d6004803603604081101561040357600080fd5b810190808035906020019064010000000081111561042057600080fd5b82018360208201111561043257600080fd5b8035906020019184600183028401116401000000008311171561045457600080fd5b91908080601f016020809104026020016040519081016040528093929190818152602001838380828437600081840152601f19601f820116905080830192505050505050509192919290803590602001906401000000008111156104b757600080fd5b8201836020820111156104c957600080fd5b803590602001918460018302840111640100000000831117156104eb57600080fd5b91908080601f016020809104026020016040519081016040528093929190818152602001838380828437600081840152601f19601f82011690508083019250505050505050919291929050505061265e565b6040518083815260200180602001828103825283818151815260200191508051906020019080838360005b83811015610583578082015181840152602081019050610568565b50505050905090810190601f1680156105b05780820380516001836020036101000a031916815260200191505b50935050505060405180910390f35b610685600480360360408110156105d557600080fd5b81019080803590602001906401000000008111156105f257600080fd5b82018360208201111561060457600080fd5b8035906020019184600183028401116401000000008311171561062657600080fd5b91908080601f016020809104026020016040519081016040528093929190818152602001838380828437600081840152601f19601f820116905080830192505050505050509192919290803560ff16906020019092919050505061283c565b60405180806020018660ff1660ff1681526020018573ffffffffffffffffffffffffffffffffffffffff1673ffffffffffffffffffffffffffffffffffffffff1681526020018060200180602001848103845289818151815260200191508051906020019080838360005b8381101561070b5780820151818401526020810190506106f0565b50505050905090810190601f1680156107385780820380516001836020036101000a031916815260200191505b50848103835286818151815260200191508051906020019060200280838360005b83811015610774578082015181840152602081019050610759565b50505050905001848103825285818151815260200191508051906020019060200280838360005b838110156107b657808201518184015260208101905061079b565b505050509050019850505050505050505060405180910390f35b6107d8613023565b604051808273ffffffffffffffffffffffffffffffffffffffff1673ffffffffffffffffffffffffffffffffffffffff16815260200191505060405180910390f35b61082261302b565b6040518080602001806020018473ffffffffffffffffffffffffffffffffffffffff1673ffffffffffffffffffffffffffffffffffffffff168152602001838103835286818151815260200191508051906020019080838360005b8381101561089857808201518184015260208101905061087d565b50505050905090810190601f1680156108c55780820380516001836020036101000a031916815260200191505b50838103825285818151815260200191508051906020019060200280838360005b838110156109015780820151818401526020810190506108e6565b505050509050019550505050505060405180910390f35b610a686004803603604081101561092e57600080fd5b810190808035906020019064010000000081111561094b57600080fd5b82018360208201111561095d57600080fd5b8035906020019184600183028401116401000000008311171561097f57600080fd5b91908080601f016020809104026020016040519081016040528093929190818152602001838380828437600081840152601f19601f820116905080830192505050505050509192919290803590602001906401000000008111156109e257600080fd5b8201836020820111156109f457600080fd5b80359060200191846001830284011164010000000083111715610a1657600080fd5b91908080601f016020809104026020016040519081016040528093929190818152602001838380828437600081840152601f19601f820116905080830192505050505050509192919290505050613587565b60405180806020018573ffffffffffffffffffffffffffffffffffffffff1673ffffffffffffffffffffffffffffffffffffffff1681526020018060200180602001848103845288818151815260200191508051906020019080838360005b83811015610ae2578082015181840152602081019050610ac7565b50505050905090810190601f168015610b0f5780820380516001836020036101000a031916815260200191505b50848103835286818151815260200191508051906020019060200280838360005b83811015610b4b578082015181840152602081019050610b30565b50505050905001848103825285818151815260200191508051906020019080838360005b83811015610b8a578082015181840152602081019050610b6f565b50505050905090810190601f168015610bb75780820380516001836020036101000a031916815260200191505b5097505050505050505060405180910390f35b610dd160048036036080811015610be057600080fd5b8101908080359060200190640100000000811115610bfd57600080fd5b820183602082011115610c0f57600080fd5b80359060200191846001830284011164010000000083111715610c3157600080fd5b91908080601f016020809104026020016040519081016040528093929190818152602001838380828437600081840152601f19601f82011690508083019250505050505050919291929080359060200190640100000000811115610c9457600080fd5b820183602082011115610ca657600080fd5b80359060200191846001830284011164010000000083111715610cc857600080fd5b91908080601f016020809104026020016040519081016040528093929190818152602001838380828437600081840152601f19601f820116905080830192505050505050509192919290803573ffffffffffffffffffffffffffffffffffffffff16906020019092919080359060200190640100000000811115610d4b57600080fd5b820183602082011115610d5d57600080fd5b80359060200191846001830284011164010000000083111715610d7f57600080fd5b91908080601f016020809104026020016040519081016040528093929190818152602001838380828437600081840152601f19601f820116905080830192505050505050509192919290505050613da0565b005b610e8c60048036036020811015610de957600080fd5b8101908080359060200190640100000000811115610e0657600080fd5b820183602082011115610e1857600080fd5b80359060200191846001830284011164010000000083111715610e3a57600080fd5b91908080601f016020809104026020016040519081016040528093929190818152602001838380828437600081840152601f19601f820116905080830192505050505050509192919290505050614305565b6040518082815260200191505060405180910390f35b610ee460048036036020811015610eb857600080fd5b81019080803573ffffffffffffffffffffffffffffffffffffffff169060200190929190505050614380565b60405180806020018460ff1660ff16815260200180602001838103835286818151815260200191508051906020019080838360005b83811015610f34578082015181840152602081019050610f19565b50505050905090810190601f168015610f615780820380516001836020036101000a031916815260200191505b50838103825284818151815260200191508051906020019060200280838360005b83811015610f9d578082015181840152602081019050610f82565b505050509050019550505050505060405180910390f35b6060816060600260008381526020019081526020016000206000018054600181600116156101000203166002900480601f0160208091040260200160405190810160405280929190818152602001828054600181600116156101000203166002900480156110635780601f1061103857610100808354040283529160200191611063565b820191906000526020600020905b81548152906001019060200180831161104657829003601f168201915b50505050509050600081511161107857600080fd5b600260008581526020019081526020016000206000018054600181600116156101000203166002900480601f0160208091040260200160405190810160405280929190818152602001828054600181600116156101000203166002900480156111225780601f106110f757610100808354040283529160200191611122565b820191906000526020600020905b81548152906001019060200180831161110557829003601f168201915b505050505092505050919050565b33611139614bcb565b600360008373ffffffffffffffffffffffffffffffffffffffff1673ffffffffffffffffffffffffffffffffffffffff1681526020019081526020016000206040518060a0016040529081600082018054600181600116156101000203166002900480601f01602080910402602001604051908101604052809291908181526020018280546001816001161561010002031660029004801561121c5780601f106111f15761010080835404028352916020019161121c565b820191906000526020600020905b8154815290600101906020018083116111ff57829003601f168201915b505050505081526020016001820160009054906101000a900460ff1660ff1660ff1681526020016001820160019054906101000a900473ffffffffffffffffffffffffffffffffffffffff1673ffffffffffffffffffffffffffffffffffffffff1673ffffffffffffffffffffffffffffffffffffffff168152602001600282018054806020026020016040519081016040528092919081815260200182805480156112e757602002820191906000526020600020905b8154815260200190600101908083116112d3575b505050505081526020016003820180548060200260200160405190810160405280929190818152602001828054801561137557602002820191906000526020600020905b8160009054906101000a900473ffffffffffffffffffffffffffffffffffffffff1673ffffffffffffffffffffffffffffffffffffffff168152602001906001019080831161132b575b5050505050815250509050600073ffffffffffffffffffffffffffffffffffffffff16816040015173ffffffffffffffffffffffffffffffffffffffff16116113bd57600080fd5b336113c6614c13565b6000808373ffffffffffffffffffffffffffffffffffffffff1673ffffffffffffffffffffffffffffffffffffffff168152602001908152602001600020604051806080016040529081600082018054600181600116156101000203166002900480601f0160208091040260200160405190810160405280929190818152602001828054600181600116156101000203166002900480156114a85780601f1061147d576101008083540402835291602001916114a8565b820191906000526020600020905b81548152906001019060200180831161148b57829003601f168201915b50505050508152602001600182018054600181600116156101000203166002900480601f01602080910402602001604051908101604052809291908181526020018280546001816001161561010002031660029004801561154a5780601f1061151f5761010080835404028352916020019161154a565b820191906000526020600020905b81548152906001019060200180831161152d57829003601f168201915b505050505081526020016002820160009054906101000a900473ffffffffffffffffffffffffffffffffffffffff1673ffffffffffffffffffffffffffffffffffffffff1673ffffffffffffffffffffffffffffffffffffffff1681526020016003820180548060200260200160405190810160405280929190818152602001828054801561162e57602002820191906000526020600020905b8160009054906101000a900473ffffffffffffffffffffffffffffffffffffffff1673ffffffffffffffffffffffffffffffffffffffff16815260200190600101908083116115e4575b5050505050815250509050600073ffffffffffffffffffffffffffffffffffffffff16816040015173ffffffffffffffffffffffffffffffffffffffff161161167657600080fd5b6000600360003373ffffffffffffffffffffffffffffffffffffffff1673ffffffffffffffffffffffffffffffffffffffff168152602001908152602001600020905060008060008873ffffffffffffffffffffffffffffffffffffffff1673ffffffffffffffffffffffffffffffffffffffff16815260200190815260200160002090506001600460003373ffffffffffffffffffffffffffffffffffffffff1673ffffffffffffffffffffffffffffffffffffffff16815260200190815260200160002060008973ffffffffffffffffffffffffffffffffffffffff1673ffffffffffffffffffffffffffffffffffffffff168152602001908152602001600020541061178457600080fd5b6000826003018890806001815401808255809150509060018203906000526020600020016000909192909190916101000a81548173ffffffffffffffffffffffffffffffffffffffff021916908373ffffffffffffffffffffffffffffffffffffffff160217905550905080600460003373ffffffffffffffffffffffffffffffffffffffff1673ffffffffffffffffffffffffffffffffffffffff16815260200190815260200160002060008a73ffffffffffffffffffffffffffffffffffffffff1673ffffffffffffffffffffffffffffffffffffffff16815260200190815260200160002081905550816003013390806001815401808255809150509060018203906000526020600020016000909192909190916101000a81548173ffffffffffffffffffffffffffffffffffffffff021916908373ffffffffffffffffffffffffffffffffffffffff160217905550505050505050505050565b60606000606080336118f2614bcb565b600360008373ffffffffffffffffffffffffffffffffffffffff1673ffffffffffffffffffffffffffffffffffffffff1681526020019081526020016000206040518060a0016040529081600082018054600181600116156101000203166002900480601f0160208091040260200160405190810160405280929190818152602001828054600181600116156101000203166002900480156119d55780601f106119aa576101008083540402835291602001916119d5565b820191906000526020600020905b8154815290600101906020018083116119b857829003601f168201915b505050505081526020016001820160009054906101000a900460ff1660ff1660ff1681526020016001820160019054906101000a900473ffffffffffffffffffffffffffffffffffffffff1673ffffffffffffffffffffffffffffffffffffffff1673ffffffffffffffffffffffffffffffffffffffff16815260200160028201805480602002602001604051908101604052809291908181526020018280548015611aa057602002820191906000526020600020905b815481526020019060010190808311611a8c575b5050505050815260200160038201805480602002602001604051908101604052809291908181526020018280548015611b2e57602002820191906000526020600020905b8160009054906101000a900473ffffffffffffffffffffffffffffffffffffffff1673ffffffffffffffffffffffffffffffffffffffff1681526020019060010190808311611ae4575b5050505050815250509050600073ffffffffffffffffffffffffffffffffffffffff16816040015173ffffffffffffffffffffffffffffffffffffffff1611611b7657600080fd5b611b7e614bcb565b600360003373ffffffffffffffffffffffffffffffffffffffff1673ffffffffffffffffffffffffffffffffffffffff1681526020019081526020016000206040518060a0016040529081600082018054600181600116156101000203166002900480601f016020809104026020016040519081016040528092919081815260200182805460018160011615610100020316600290048015611c615780601f10611c3657610100808354040283529160200191611c61565b820191906000526020600020905b815481529060010190602001808311611c4457829003601f168201915b505050505081526020016001820160009054906101000a900460ff1660ff1660ff1681526020016001820160019054906101000a900473ffffffffffffffffffffffffffffffffffffffff1673ffffffffffffffffffffffffffffffffffffffff1673ffffffffffffffffffffffffffffffffffffffff16815260200160028201805480602002602001604051908101604052809291908181526020018280548015611d2c57602002820191906000526020600020905b815481526020019060010190808311611d18575b5050505050815260200160038201805480602002602001604051908101604052809291908181526020018280548015611dba57602002820191906000526020600020905b8160009054906101000a900473ffffffffffffffffffffffffffffffffffffffff1673ffffffffffffffffffffffffffffffffffffffff1681526020019060010190808311611d70575b50505050508152505090508060000151816020015182606001518360800151839350819150809050965096509650965050505090919293565b60608033611dff614bcb565b600360008373ffffffffffffffffffffffffffffffffffffffff1673ffffffffffffffffffffffffffffffffffffffff1681526020019081526020016000206040518060a0016040529081600082018054600181600116156101000203166002900480601f016020809104026020016040519081016040528092919081815260200182805460018160011615610100020316600290048015611ee25780601f10611eb757610100808354040283529160200191611ee2565b820191906000526020600020905b815481529060010190602001808311611ec557829003601f168201915b505050505081526020016001820160009054906101000a900460ff1660ff1660ff1681526020016001820160019054906101000a900473ffffffffffffffffffffffffffffffffffffffff1673ffffffffffffffffffffffffffffffffffffffff1673ffffffffffffffffffffffffffffffffffffffff16815260200160028201805480602002602001604051908101604052809291908181526020018280548015611fad57602002820191906000526020600020905b815481526020019060010190808311611f99575b505050505081526020016003820180548060200260200160405190810160405280929190818152602001828054801561203b57602002820191906000526020600020905b8160009054906101000a900473ffffffffffffffffffffffffffffffffffffffff1673ffffffffffffffffffffffffffffffffffffffff1681526020019060010190808311611ff1575b5050505050815250509050600073ffffffffffffffffffffffffffffffffffffffff16816040015173ffffffffffffffffffffffffffffffffffffffff161161208357600080fd5b8461208c614c13565b6000808373ffffffffffffffffffffffffffffffffffffffff1673ffffffffffffffffffffffffffffffffffffffff168152602001908152602001600020604051806080016040529081600082018054600181600116156101000203166002900480601f01602080910402602001604051908101604052809291908181526020018280546001816001161561010002031660029004801561216e5780601f106121435761010080835404028352916020019161216e565b820191906000526020600020905b81548152906001019060200180831161215157829003601f168201915b50505050508152602001600182018054600181600116156101000203166002900480601f0160208091040260200160405190810160405280929190818152602001828054600181600116156101000203166002900480156122105780601f106121e557610100808354040283529160200191612210565b820191906000526020600020905b8154815290600101906020018083116121f357829003601f168201915b505050505081526020016002820160009054906101000a900473ffffffffffffffffffffffffffffffffffffffff1673ffffffffffffffffffffffffffffffffffffffff1673ffffffffffffffffffffffffffffffffffffffff168152602001600382018054806020026020016040519081016040528092919081815260200182805480156122f457602002820191906000526020600020905b8160009054906101000a900473ffffffffffffffffffffffffffffffffffffffff1673ffffffffffffffffffffffffffffffffffffffff16815260200190600101908083116122aa575b5050505050815250509050600073ffffffffffffffffffffffffffffffffffffffff16816040015173ffffffffffffffffffffffffffffffffffffffff161161233c57600080fd5b612344614c13565b6000808973ffffffffffffffffffffffffffffffffffffffff1673ffffffffffffffffffffffffffffffffffffffff168152602001908152602001600020604051806080016040529081600082018054600181600116156101000203166002900480601f0160208091040260200160405190810160405280929190818152602001828054600181600116156101000203166002900480156124265780601f106123fb57610100808354040283529160200191612426565b820191906000526020600020905b81548152906001019060200180831161240957829003601f168201915b50505050508152602001600182018054600181600116156101000203166002900480601f0160208091040260200160405190810160405280929190818152602001828054600181600116156101000203166002900480156124c85780601f1061249d576101008083540402835291602001916124c8565b820191906000526020600020905b8154815290600101906020018083116124ab57829003601f168201915b505050505081526020016002820160009054906101000a900473ffffffffffffffffffffffffffffffffffffffff1673ffffffffffffffffffffffffffffffffffffffff1673ffffffffffffffffffffffffffffffffffffffff168152602001600382018054806020026020016040519081016040528092919081815260200182805480156125ac57602002820191906000526020600020905b8160009054906101000a900473ffffffffffffffffffffffffffffffffffffffff1673ffffffffffffffffffffffffffffffffffffffff1681526020019060010190808311612562575b50505050508152505090506000600160008a73ffffffffffffffffffffffffffffffffffffffff1673ffffffffffffffffffffffffffffffffffffffff16815260200190815260200160002060003373ffffffffffffffffffffffffffffffffffffffff1673ffffffffffffffffffffffffffffffffffffffff168152602001908152602001600020541161264057600080fd5b80600001518160200151819150809050965096505050505050915091565b600060606000846040516020018082805190602001908083835b6020831061269b5780518252602082019150602081019050602083039250612678565b6001836020036101000a03801982511681845116808217855250505050505090500191505060405160208183030381529060405280519060200120905060405180608001604052808581526020016040518060400160405280600a81526020017f626c6f6f642074657374000000000000000000000000000000000000000000008152508152602001600073ffffffffffffffffffffffffffffffffffffffff16815260200186815250600260008381526020019081526020016000206000820151816000019080519060200190612774929190614c51565b506020820151816001019080519060200190612791929190614c51565b5060408201518160020160006101000a81548173ffffffffffffffffffffffffffffffffffffffff021916908373ffffffffffffffffffffffffffffffffffffffff16021790555060608201518160030190805190602001906127f5929190614c51565b50905050806040518060400160405280600c81526020017f426c6f6f6420546573742031000000000000000000000000000000000000000081525092509250509250929050565b606060008060608061284c614bcb565b600360003373ffffffffffffffffffffffffffffffffffffffff1673ffffffffffffffffffffffffffffffffffffffff1681526020019081526020016000206040518060a0016040529081600082018054600181600116156101000203166002900480601f01602080910402602001604051908101604052809291908181526020018280546001816001161561010002031660029004801561292f5780601f106129045761010080835404028352916020019161292f565b820191906000526020600020905b81548152906001019060200180831161291257829003601f168201915b505050505081526020016001820160009054906101000a900460ff1660ff1660ff1681526020016001820160019054906101000a900473ffffffffffffffffffffffffffffffffffffffff1673ffffffffffffffffffffffffffffffffffffffff1673ffffffffffffffffffffffffffffffffffffffff168152602001600282018054806020026020016040519081016040528092919081815260200182805480156129fa57602002820191906000526020600020905b8154815260200190600101908083116129e6575b5050505050815260200160038201805480602002602001604051908101604052809291908181526020018280548015612a8857602002820191906000526020600020905b8160009054906101000a900473ffffffffffffffffffffffffffffffffffffffff1673ffffffffffffffffffffffffffffffffffffffff1681526020019060010190808311612a3e575b5050505050815250509050600073ffffffffffffffffffffffffffffffffffffffff16816040015173ffffffffffffffffffffffffffffffffffffffff161115612ad157600080fd5b6040518060000190506040518091039020886040516020018082805190602001908083835b60208310612b195780518252602082019150602081019050602083039250612af6565b6001836020036101000a038019825116818451168082178552505050505050905001915050604051602081830303815290604052805190602001201415612b5f57600080fd5b60008760ff16118015612b75575060788760ff16105b612b7e57600080fd5b6040518060a001604052808981526020018860ff1681526020013373ffffffffffffffffffffffffffffffffffffffff1681526020016000604051908082528060200260200182016040528015612be45781602001602082028038833980820191505090505b5081526020016000604051908082528060200260200182016040528015612c1a5781602001602082028038833980820191505090505b50815250600360003373ffffffffffffffffffffffffffffffffffffffff1673ffffffffffffffffffffffffffffffffffffffff1681526020019081526020016000206000820151816000019080519060200190612c79929190614c51565b5060208201518160010160006101000a81548160ff021916908360ff16021790555060408201518160010160016101000a81548173ffffffffffffffffffffffffffffffffffffffff021916908373ffffffffffffffffffffffffffffffffffffffff1602179055506060820151816002019080519060200190612cfe929190614cd1565b506080820151816003019080519060200190612d1b929190614d1e565b50905050600360003373ffffffffffffffffffffffffffffffffffffffff1673ffffffffffffffffffffffffffffffffffffffff168152602001908152602001600020600001600360003373ffffffffffffffffffffffffffffffffffffffff1673ffffffffffffffffffffffffffffffffffffffff16815260200190815260200160002060010160009054906101000a900460ff16600360003373ffffffffffffffffffffffffffffffffffffffff1673ffffffffffffffffffffffffffffffffffffffff16815260200190815260200160002060010160019054906101000a900473ffffffffffffffffffffffffffffffffffffffff16600360003373ffffffffffffffffffffffffffffffffffffffff1673ffffffffffffffffffffffffffffffffffffffff168152602001908152602001600020600201600360003373ffffffffffffffffffffffffffffffffffffffff1673ffffffffffffffffffffffffffffffffffffffff168152602001908152602001600020600301848054600181600116156101000203166002900480601f016020809104026020016040519081016040528092919081815260200182805460018160011615610100020316600290048015612f2d5780601f10612f0257610100808354040283529160200191612f2d565b820191906000526020600020905b815481529060010190602001808311612f1057829003601f168201915b5050505050945081805480602002602001604051908101604052809291908181526020018280548015612f7f57602002820191906000526020600020905b815481526020019060010190808311612f6b575b505050505091508080548060200260200160405190810160405280929190818152602001828054801561300757602002820191906000526020600020905b8160009054906101000a900473ffffffffffffffffffffffffffffffffffffffff1673ffffffffffffffffffffffffffffffffffffffff1681526020019060010190808311612fbd575b5050505050905095509550955095509550509295509295909350565b600033905090565b606080600033613039614c13565b6000808373ffffffffffffffffffffffffffffffffffffffff1673ffffffffffffffffffffffffffffffffffffffff168152602001908152602001600020604051806080016040529081600082018054600181600116156101000203166002900480601f01602080910402602001604051908101604052809291908181526020018280546001816001161561010002031660029004801561311b5780601f106130f05761010080835404028352916020019161311b565b820191906000526020600020905b8154815290600101906020018083116130fe57829003601f168201915b50505050508152602001600182018054600181600116156101000203166002900480601f0160208091040260200160405190810160405280929190818152602001828054600181600116156101000203166002900480156131bd5780601f10613192576101008083540402835291602001916131bd565b820191906000526020600020905b8154815290600101906020018083116131a057829003601f168201915b505050505081526020016002820160009054906101000a900473ffffffffffffffffffffffffffffffffffffffff1673ffffffffffffffffffffffffffffffffffffffff1673ffffffffffffffffffffffffffffffffffffffff168152602001600382018054806020026020016040519081016040528092919081815260200182805480156132a157602002820191906000526020600020905b8160009054906101000a900473ffffffffffffffffffffffffffffffffffffffff1673ffffffffffffffffffffffffffffffffffffffff1681526020019060010190808311613257575b5050505050815250509050600073ffffffffffffffffffffffffffffffffffffffff16816040015173ffffffffffffffffffffffffffffffffffffffff16116132e957600080fd5b6132f1614c13565b6000803373ffffffffffffffffffffffffffffffffffffffff1673ffffffffffffffffffffffffffffffffffffffff168152602001908152602001600020604051806080016040529081600082018054600181600116156101000203166002900480601f0160208091040260200160405190810160405280929190818152602001828054600181600116156101000203166002900480156133d35780601f106133a8576101008083540402835291602001916133d3565b820191906000526020600020905b8154815290600101906020018083116133b657829003601f168201915b50505050508152602001600182018054600181600116156101000203166002900480601f0160208091040260200160405190810160405280929190818152602001828054600181600116156101000203166002900480156134755780601f1061344a57610100808354040283529160200191613475565b820191906000526020600020905b81548152906001019060200180831161345857829003601f168201915b505050505081526020016002820160009054906101000a900473ffffffffffffffffffffffffffffffffffffffff1673ffffffffffffffffffffffffffffffffffffffff1673ffffffffffffffffffffffffffffffffffffffff1681526020016003820180548060200260200160405190810160405280929190818152602001828054801561355957602002820191906000526020600020905b8160009054906101000a900473ffffffffffffffffffffffffffffffffffffffff1673ffffffffffffffffffffffffffffffffffffffff168152602001906001019080831161350f575b5050505050815250509050806000015181606001518260400151829250819150955095509550505050909192565b60606000606080613596614c13565b6000803373ffffffffffffffffffffffffffffffffffffffff1673ffffffffffffffffffffffffffffffffffffffff168152602001908152602001600020604051806080016040529081600082018054600181600116156101000203166002900480601f0160208091040260200160405190810160405280929190818152602001828054600181600116156101000203166002900480156136785780601f1061364d57610100808354040283529160200191613678565b820191906000526020600020905b81548152906001019060200180831161365b57829003601f168201915b50505050508152602001600182018054600181600116156101000203166002900480601f01602080910402602001604051908101604052809291908181526020018280546001816001161561010002031660029004801561371a5780601f106136ef5761010080835404028352916020019161371a565b820191906000526020600020905b8154815290600101906020018083116136fd57829003601f168201915b505050505081526020016002820160009054906101000a900473ffffffffffffffffffffffffffffffffffffffff1673ffffffffffffffffffffffffffffffffffffffff1673ffffffffffffffffffffffffffffffffffffffff168152602001600382018054806020026020016040519081016040528092919081815260200182805480156137fe57602002820191906000526020600020905b8160009054906101000a900473ffffffffffffffffffffffffffffffffffffffff1673ffffffffffffffffffffffffffffffffffffffff16815260200190600101908083116137b4575b50505050508152505090506040518060000190506040518091039020876040516020018082805190602001908083835b60208310613851578051825260208201915060208101905060208303925061382e565b6001836020036101000a03801982511681845116808217855250505050505090500191505060405160208183030381529060405280519060200120141561389757600080fd5b6040518060000190506040518091039020866040516020018082805190602001908083835b602083106138df57805182526020820191506020810190506020830392506138bc565b6001836020036101000a03801982511681845116808217855250505050505090500191505060405160208183030381529060405280519060200120141561392557600080fd5b600073ffffffffffffffffffffffffffffffffffffffff16816040015173ffffffffffffffffffffffffffffffffffffffff16111561396357600080fd5b60405180608001604052808881526020018781526020013373ffffffffffffffffffffffffffffffffffffffff16815260200160006040519080825280602002602001820160405280156139c65781602001602082028038833980820191505090505b508152506000803373ffffffffffffffffffffffffffffffffffffffff1673ffffffffffffffffffffffffffffffffffffffff1681526020019081526020016000206000820151816000019080519060200190613a24929190614c51565b506020820151816001019080519060200190613a41929190614c51565b5060408201518160020160006101000a81548173ffffffffffffffffffffffffffffffffffffffff021916908373ffffffffffffffffffffffffffffffffffffffff1602179055506060820151816003019080519060200190613aa5929190614d1e565b509050506000803373ffffffffffffffffffffffffffffffffffffffff1673ffffffffffffffffffffffffffffffffffffffff1681526020019081526020016000206000016000803373ffffffffffffffffffffffffffffffffffffffff1673ffffffffffffffffffffffffffffffffffffffff16815260200190815260200160002060020160009054906101000a900473ffffffffffffffffffffffffffffffffffffffff166000803373ffffffffffffffffffffffffffffffffffffffff1673ffffffffffffffffffffffffffffffffffffffff1681526020019081526020016000206003016000803373ffffffffffffffffffffffffffffffffffffffff1673ffffffffffffffffffffffffffffffffffffffff168152602001908152602001600020600101838054600181600116156101000203166002900480601f016020809104026020016040519081016040528092919081815260200182805460018160011615610100020316600290048015613c635780601f10613c3857610100808354040283529160200191613c63565b820191906000526020600020905b815481529060010190602001808311613c4657829003601f168201915b5050505050935081805480602002602001604051908101604052809291908181526020018280548015613ceb57602002820191906000526020600020905b8160009054906101000a900473ffffffffffffffffffffffffffffffffffffffff1673ffffffffffffffffffffffffffffffffffffffff1681526020019060010190808311613ca1575b50505050509150808054600181600116156101000203166002900480601f016020809104026020016040519081016040528092919081815260200182805460018160011615610100020316600290048015613d875780601f10613d5c57610100808354040283529160200191613d87565b820191906000526020600020905b815481529060010190602001808311613d6a57829003601f168201915b5050505050905094509450945094505092959194509250565b33613da9614c13565b6000808373ffffffffffffffffffffffffffffffffffffffff1673ffffffffffffffffffffffffffffffffffffffff168152602001908152602001600020604051806080016040529081600082018054600181600116156101000203166002900480601f016020809104026020016040519081016040528092919081815260200182805460018160011615610100020316600290048015613e8b5780601f10613e6057610100808354040283529160200191613e8b565b820191906000526020600020905b815481529060010190602001808311613e6e57829003601f168201915b50505050508152602001600182018054600181600116156101000203166002900480601f016020809104026020016040519081016040528092919081815260200182805460018160011615610100020316600290048015613f2d5780601f10613f0257610100808354040283529160200191613f2d565b820191906000526020600020905b815481529060010190602001808311613f1057829003601f168201915b505050505081526020016002820160009054906101000a900473ffffffffffffffffffffffffffffffffffffffff1673ffffffffffffffffffffffffffffffffffffffff1673ffffffffffffffffffffffffffffffffffffffff1681526020016003820180548060200260200160405190810160405280929190818152602001828054801561401157602002820191906000526020600020905b8160009054906101000a900473ffffffffffffffffffffffffffffffffffffffff1673ffffffffffffffffffffffffffffffffffffffff1681526020019060010190808311613fc7575b5050505050815250509050600073ffffffffffffffffffffffffffffffffffffffff16816040015173ffffffffffffffffffffffffffffffffffffffff161161405957600080fd5b6000836040516020018080602001828103825283818151815260200191508051906020019080838360005b8381101561409f578082015181840152602081019050614084565b50505050905090810190601f1680156140cc5780820380516001836020036101000a031916815260200191505b50925050506040516020818303038152906040528051906020012090506000600360008773ffffffffffffffffffffffffffffffffffffffff1673ffffffffffffffffffffffffffffffffffffffff16815260200190815260200160002090506001600560008873ffffffffffffffffffffffffffffffffffffffff1673ffffffffffffffffffffffffffffffffffffffff1681526020019081526020016000206000848152602001908152602001600020541061418957600080fd5b60405180608001604052808981526020018881526020013373ffffffffffffffffffffffffffffffffffffffff168152602001868152506002600084815260200190815260200160002060008201518160000190805190602001906141ef929190614c51565b50602082015181600101908051906020019061420c929190614c51565b5060408201518160020160006101000a81548173ffffffffffffffffffffffffffffffffffffffff021916908373ffffffffffffffffffffffffffffffffffffffff1602179055506060820151816003019080519060200190614270929190614c51565b509050506000816002018390806001815401808255809150509060018203906000526020600020016000909192909190915055905080600560008973ffffffffffffffffffffffffffffffffffffffff1673ffffffffffffffffffffffffffffffffffffffff168152602001908152602001600020600085815260200190815260200160002081905550505050505050505050565b6000816040516020018082805190602001908083835b6020831061433e578051825260208201915060208101905060208303925061431b565b6001836020036101000a038019825116818451168082178552505050505050905001915050604051602081830303815290604052805190602001209050919050565b6060600060608361438f614bcb565b600360008373ffffffffffffffffffffffffffffffffffffffff1673ffffffffffffffffffffffffffffffffffffffff1681526020019081526020016000206040518060a0016040529081600082018054600181600116156101000203166002900480601f0160208091040260200160405190810160405280929190818152602001828054600181600116156101000203166002900480156144725780601f1061444757610100808354040283529160200191614472565b820191906000526020600020905b81548152906001019060200180831161445557829003601f168201915b505050505081526020016001820160009054906101000a900460ff1660ff1660ff1681526020016001820160019054906101000a900473ffffffffffffffffffffffffffffffffffffffff1673ffffffffffffffffffffffffffffffffffffffff1673ffffffffffffffffffffffffffffffffffffffff1681526020016002820180548060200260200160405190810160405280929190818152602001828054801561453d57602002820191906000526020600020905b815481526020019060010190808311614529575b50505050508152602001600382018054806020026020016040519081016040528092919081815260200182805480156145cb57602002820191906000526020600020905b8160009054906101000a900473ffffffffffffffffffffffffffffffffffffffff1673ffffffffffffffffffffffffffffffffffffffff1681526020019060010190808311614581575b5050505050815250509050600073ffffffffffffffffffffffffffffffffffffffff16816040015173ffffffffffffffffffffffffffffffffffffffff161161461357600080fd5b3361461c614c13565b6000808373ffffffffffffffffffffffffffffffffffffffff1673ffffffffffffffffffffffffffffffffffffffff168152602001908152602001600020604051806080016040529081600082018054600181600116156101000203166002900480601f0160208091040260200160405190810160405280929190818152602001828054600181600116156101000203166002900480156146fe5780601f106146d3576101008083540402835291602001916146fe565b820191906000526020600020905b8154815290600101906020018083116146e157829003601f168201915b50505050508152602001600182018054600181600116156101000203166002900480601f0160208091040260200160405190810160405280929190818152602001828054600181600116156101000203166002900480156147a05780601f10614775576101008083540402835291602001916147a0565b820191906000526020600020905b81548152906001019060200180831161478357829003601f168201915b505050505081526020016002820160009054906101000a900473ffffffffffffffffffffffffffffffffffffffff1673ffffffffffffffffffffffffffffffffffffffff1673ffffffffffffffffffffffffffffffffffffffff1681526020016003820180548060200260200160405190810160405280929190818152602001828054801561488457602002820191906000526020600020905b8160009054906101000a900473ffffffffffffffffffffffffffffffffffffffff1673ffffffffffffffffffffffffffffffffffffffff168152602001906001019080831161483a575b5050505050815250509050600073ffffffffffffffffffffffffffffffffffffffff16816040015173ffffffffffffffffffffffffffffffffffffffff16116148cc57600080fd5b6148d4614bcb565b600360008a73ffffffffffffffffffffffffffffffffffffffff1673ffffffffffffffffffffffffffffffffffffffff1681526020019081526020016000206040518060a0016040529081600082018054600181600116156101000203166002900480601f0160208091040260200160405190810160405280929190818152602001828054600181600116156101000203166002900480156149b75780601f1061498c576101008083540402835291602001916149b7565b820191906000526020600020905b81548152906001019060200180831161499a57829003601f168201915b505050505081526020016001820160009054906101000a900460ff1660ff1660ff1681526020016001820160019054906101000a900473ffffffffffffffffffffffffffffffffffffffff1673ffffffffffffffffffffffffffffffffffffffff1673ffffffffffffffffffffffffffffffffffffffff16815260200160028201805480602002602001604051908101604052809291908181526020018280548015614a8257602002820191906000526020600020905b815481526020019060010190808311614a6e575b5050505050815260200160038201805480602002602001604051908101604052809291908181526020018280548015614b1057602002820191906000526020600020905b8160009054906101000a900473ffffffffffffffffffffffffffffffffffffffff1673ffffffffffffffffffffffffffffffffffffffff1681526020019060010190808311614ac6575b50505050508152505090506000600460008b73ffffffffffffffffffffffffffffffffffffffff1673ffffffffffffffffffffffffffffffffffffffff16815260200190815260200160002060003373ffffffffffffffffffffffffffffffffffffffff1673ffffffffffffffffffffffffffffffffffffffff1681526020019081526020016000205411614ba457600080fd5b80600001518160200151826060015182925080905097509750975050505050509193909250565b6040518060a0016040528060608152602001600060ff168152602001600073ffffffffffffffffffffffffffffffffffffffff16815260200160608152602001606081525090565b60405180608001604052806060815260200160608152602001600073ffffffffffffffffffffffffffffffffffffffff168152602001606081525090565b828054600181600116156101000203166002900490600052602060002090601f016020900481019282601f10614c9257805160ff1916838001178555614cc0565b82800160010185558215614cc0579182015b82811115614cbf578251825591602001919060010190614ca4565b5b509050614ccd9190614da8565b5090565b828054828255906000526020600020908101928215614d0d579160200282015b82811115614d0c578251825591602001919060010190614cf1565b5b509050614d1a9190614dcd565b5090565b828054828255906000526020600020908101928215614d97579160200282015b82811115614d965782518260006101000a81548173ffffffffffffffffffffffffffffffffffffffff021916908373ffffffffffffffffffffffffffffffffffffffff16021790555091602001919060010190614d3e565b5b509050614da49190614df2565b5090565b614dca91905b80821115614dc6576000816000905550600101614dae565b5090565b90565b614def91905b80821115614deb576000816000905550600101614dd3565b5090565b90565b614e3291905b80821115614e2e57600081816101000a81549073ffffffffffffffffffffffffffffffffffffffff021916905550600101614df8565b5090565b9056fea265627a7a72315820c9863ac4b54770473691b1e73ce35e630edd3152d46cd5d37b299af6be73a1a564736f6c63430005100032",
  "source": "pragma solidity >=0.4.25 <0.7.0;\n\n// Service contract, combines patient, doctor, file contracts\n// and handles higher-level functionality\ncontract Service {\n    // Doctor Mappings\n    mapping (address => doctor) internal doctors;\n    mapping (address => mapping(address => uint)) internal doctorToPatient;\n\n    // File mappings\n    mapping (bytes32 => file) internal fileHashDict;\n\n    // Patient mappings\n    mapping (address => patient) internal patients; // dictionary of all patients\n    mapping (address => mapping (address => uint)) internal patientToDoctor; // dictionary mapping patient to doctor\n    mapping (address => mapping (bytes32 => uint)) internal patientToFile; // dictionary mapping patient to files\n\n    // Doctor struct\n    struct doctor {\n        string name;\n        string clinic;\n        address addr;\n        address[] patient_list;\n    }\n\n    // File struct\n    struct file {\n        string file_name;\n        string record_type;\n        address uploader;\n        string contents;\n    }\n\n    // Patient struct\n    struct patient {\n        string name;\n        uint8 age;\n        address addr;\n        bytes32[] files; // hashes of file that belong to this user for display purpose\n        address[] doctor_list;\n    }\n\n    // Doctor methods:\n    \n    // check address is a valid doctor\n    modifier checkDoctor(address addr) {\n        doctor memory d = doctors[addr];\n        require(d.addr > address(0x0));\n        _;\n    }\n\n    // getter function for doctor's information\n    function getDoctorInfo() public view checkDoctor(msg.sender) returns(string memory, address[] memory, address) {\n        doctor memory d = doctors[msg.sender];\n        return (d.name, d.patient_list, d.addr);\n    }\n\n    // Create a new doctor method\n    function signupDoctor(string memory _name, string memory _clinic) public returns(string memory, address, address[] memory, string memory) {\n        \n        // get doctor struct, make sure the name, clinic, and address exist\n        doctor memory d = doctors[msg.sender];\n        require(keccak256(abi.encodePacked(_name)) != keccak256(\"\"));\n        require(keccak256(abi.encodePacked(_clinic)) != keccak256(\"\"));\n        require(!(d.addr > address(0x0)));\n\n        // create doctor structure, return saved info\n        doctors[msg.sender] = doctor({name:_name, clinic:_clinic, addr:msg.sender, patient_list:new address[](0)});\n        return (doctors[msg.sender].name, doctors[msg.sender].addr, doctors[msg.sender].patient_list, doctors[msg.sender].clinic);\n    }\n\n    // File methods:\n\n    // method to test file contract\n    function testFile(string memory _file_contents, string memory _file_name) public returns(bytes32, string memory){\n        bytes32 file_hash = keccak256(abi.encodePacked(_file_contents));\n        fileHashDict[file_hash] = file({file_name:_file_name,record_type:\"blood test\",uploader:address(0x0),contents:_file_contents});\n        return (file_hash, \"Blood Test 1\");\n    }\n\n    // used for testing, get the hash of a file's contents\n    function getFileHash(string memory file_contents) public pure returns (bytes32) {\n        return keccak256(abi.encodePacked(file_contents));\n    }\n\n    // used for testing, get a file's name from the hash dictionary\n    function getFileName(bytes32 file_hash) public view checkFile(file_hash) returns (string memory) {\n        return fileHashDict[file_hash].file_name;\n    }\n\n    // make sure a file actually exists\n    modifier checkFile(bytes32 file_hash) {\n        bytes memory file_check = bytes(fileHashDict[file_hash].file_name);\n        require(file_check.length > 0);\n        _;\n    }\n\n    // given a file hash, get the file's name, type, and uploader\n    function getFileInfo(bytes32 file_hash) internal view checkFile(file_hash) returns(file memory) {\n        return fileHashDict[file_hash];\n    }\n\n    // Patient methods\n    // check that a given patient actually exists\n    modifier checkPatient(address addr) {\n        patient memory p = patients[addr];\n        require(p.addr > address(0x0));\n        _;\n    }\n\n    // get info for a given patient (name, age, files, list of whitelisted doctors)\n    function getPatientInfo() public view checkPatient(msg.sender) returns(string memory, uint8, bytes32[] memory, address[] memory) {\n        patient memory p = patients[msg.sender];\n        return (p.name, p.age, p.files, p.doctor_list);\n    }\n\n    // add a new patient\n    function signupPatient(string memory _name, uint8 _age) public returns(string memory, uint8, address, bytes32[] memory, address[] memory) {\n        // store msg.sender as a patient in memory\n        patient memory p = patients[msg.sender];\n        // make sure a patient with this addr doesn't already exist\n        require(!(p.addr > address(0x0)));\n\n        // check to make sure the patient has a valid name and age\n        require(keccak256(abi.encodePacked(_name)) != keccak256(\"\"));\n        require((_age > 0) && (_age < 120));\n\n        // add to patient dict\n        patients[msg.sender] = patient({name:_name,age:_age,addr:msg.sender,files:new bytes32[](0),doctor_list:new address[](0)});\n        return (patients[msg.sender].name, patients[msg.sender].age, patients[msg.sender].addr, patients[msg.sender].files, patients[msg.sender].doctor_list);\n    }\n\n\n    // Service methods\n\n    // message sender\n    address private owner;\n    \n    // set owner\n    constructor() public{\n        owner = msg.sender;\n    }\n\n    // make sure that the sender is the owner\n    modifier onlyOwner() {\n        require(msg.sender == owner);\n        _;\n    }\n\n    function testService() public view returns(address){\n        return msg.sender;\n    }\n\n    // add a file to a patient's list\n    function addFile(string memory _file_name, string memory _file_type, address _patient_addr, string memory _contents) public checkDoctor(msg.sender) {\n        bytes32 file_hash = keccak256(abi.encode(_contents));\n        // get the patient\n        patient storage pat = patients[_patient_addr];\n\n        // make sure the file doesn't already exist\n        require(patientToFile[_patient_addr][file_hash] < 1);\n      \n        // add this file to the file hash dict and the patient's file list\n        fileHashDict[file_hash] = file({file_name:_file_name, record_type:_file_type,uploader:msg.sender,contents:_contents});\n        uint file_pos = pat.files.push(file_hash);\n        // add the position in the file list to patientToFile mapping (avoid duplicates in future)\n        patientToFile[_patient_addr][file_hash] = file_pos;\n    }\n\n    // method to grant a doctor access to a patient's record\n    function grantDoctorAccess(address _doctor_address) public checkPatient(msg.sender) checkDoctor(msg.sender) {\n        // get struct for patient and doctor\n        patient storage p = patients[msg.sender];\n        doctor storage d = doctors[_doctor_address];\n        // check doctor does not already have access\n        require(patientToDoctor[msg.sender][_doctor_address] < 1);// this means doctor already been access\n        // get the index of doctor's position in patient's doctor_list\n        uint idx = p.doctor_list.push(_doctor_address);// new length of array\n        // add doctor to patient's doctor list\n        patientToDoctor[msg.sender][_doctor_address] = idx;\n        // add patient to doctor's patient list\n        d.patient_list.push(msg.sender);\n    }\n\n    // function to get patient info (a doctor requests)\n    function getPatientInfoForDoctor(address _patient_requested) public view checkPatient(_patient_requested) checkDoctor(msg.sender) returns(string memory, uint8, bytes32[] memory){\n        \n        // get the patient from the patient list\n        patient memory p = patients[_patient_requested];\n\n        // make sure the patient actually exists in this doctor's care circle\n        require(patientToDoctor[_patient_requested][msg.sender] > 0);\n\n        // return the patient's name, age, and files\n        return (p.name, p.age, p.files);\n    }\n\n    // function to get doctor info (for a patient) -- will see how necessary this ends up being\n    function getDoctorInfoForPatient(address _doctor_requested) public view checkPatient(msg.sender) checkDoctor(_doctor_requested) returns(string memory, string memory){\n        \n        // get the doctor from the doctors list\n        doctor memory d = doctors[_doctor_requested];\n\n        // make sure the doctor actually exists\n        require(doctorToPatient[_doctor_requested][msg.sender] > 0);\n\n        return (d.name, d.clinic);\n    }\n}",
  "sourcePath": "/Users/kevincai/Desktop/UCL/Dartmouth/Classes/SeniorDesignAndImplementationProject/8Nov/decentralized-health-blockchain/contracts/Service.sol",
  "compiler": {
    "name": "solc",
    "version": "0.5.16+commit.9c3226ce.Emscripten.clang"
  },
  "schemaVersion": "3.4.3",
  "updatedAt": "2021-11-08T16:48:20.666Z",
  "networkType": "ethereum",
  "devdoc": {
    "methods": {}
  },
  "userdoc": {
    "methods": {}
  }
}