{
  "contractName": "Service",
  "abi": [
    {
      "inputs": [],
      "payable": false,
      "stateMutability": "nonpayable",
      "type": "constructor"
    },
    {
      "constant": true,
      "inputs": [],
      "name": "getDoctorInfo",
      "outputs": [
        {
          "internalType": "string",
          "name": "",
          "type": "string"
        },
        {
          "internalType": "address[]",
          "name": "",
          "type": "address[]"
        }
      ],
      "payable": false,
      "stateMutability": "view",
      "type": "function"
    },
    {
      "constant": false,
      "inputs": [
        {
          "internalType": "string",
          "name": "_name",
          "type": "string"
        },
        {
          "internalType": "string",
          "name": "_clinic",
          "type": "string"
        }
      ],
      "name": "signupDoctor",
      "outputs": [
        {
          "internalType": "string",
          "name": "",
          "type": "string"
        },
        {
          "internalType": "address",
          "name": "",
          "type": "address"
        },
        {
          "internalType": "address[]",
          "name": "",
          "type": "address[]"
        },
        {
          "internalType": "string",
          "name": "",
          "type": "string"
        }
      ],
      "payable": false,
      "stateMutability": "nonpayable",
      "type": "function"
    },
    {
      "constant": false,
      "inputs": [
        {
          "internalType": "string",
          "name": "_file_contents",
          "type": "string"
        },
        {
          "internalType": "string",
          "name": "_file_name",
          "type": "string"
        }
      ],
      "name": "testFile",
      "outputs": [
        {
          "internalType": "bytes32",
          "name": "",
          "type": "bytes32"
        },
        {
          "internalType": "string",
          "name": "",
          "type": "string"
        }
      ],
      "payable": false,
      "stateMutability": "nonpayable",
      "type": "function"
    },
    {
      "constant": true,
      "inputs": [
        {
          "internalType": "string",
          "name": "file_contents",
          "type": "string"
        }
      ],
      "name": "getFileHash",
      "outputs": [
        {
          "internalType": "bytes32",
          "name": "",
          "type": "bytes32"
        }
      ],
      "payable": false,
      "stateMutability": "pure",
      "type": "function"
    },
    {
      "constant": true,
      "inputs": [
        {
          "internalType": "bytes32",
          "name": "file_hash",
          "type": "bytes32"
        }
      ],
      "name": "getFileName",
      "outputs": [
        {
          "internalType": "string",
          "name": "",
          "type": "string"
        }
      ],
      "payable": false,
      "stateMutability": "view",
      "type": "function"
    },
    {
      "constant": true,
      "inputs": [],
      "name": "getPatientInfo",
      "outputs": [
        {
          "internalType": "string",
          "name": "",
          "type": "string"
        },
        {
          "internalType": "uint8",
          "name": "",
          "type": "uint8"
        },
        {
          "internalType": "bytes32[]",
          "name": "",
          "type": "bytes32[]"
        },
        {
          "internalType": "address[]",
          "name": "",
          "type": "address[]"
        }
      ],
      "payable": false,
      "stateMutability": "view",
      "type": "function"
    },
    {
      "constant": false,
      "inputs": [
        {
          "internalType": "string",
          "name": "_name",
          "type": "string"
        },
        {
          "internalType": "uint8",
          "name": "_age",
          "type": "uint8"
        }
      ],
      "name": "signupPatient",
      "outputs": [
        {
          "internalType": "string",
          "name": "",
          "type": "string"
        },
        {
          "internalType": "uint8",
          "name": "",
          "type": "uint8"
        },
        {
          "internalType": "address",
          "name": "",
          "type": "address"
        },
        {
          "internalType": "bytes32[]",
          "name": "",
          "type": "bytes32[]"
        },
        {
          "internalType": "address[]",
          "name": "",
          "type": "address[]"
        }
      ],
      "payable": false,
      "stateMutability": "nonpayable",
      "type": "function"
    },
    {
      "constant": true,
      "inputs": [],
      "name": "testService",
      "outputs": [
        {
          "internalType": "address",
          "name": "",
          "type": "address"
        }
      ],
      "payable": false,
      "stateMutability": "view",
      "type": "function"
    },
    {
      "constant": false,
      "inputs": [
        {
          "internalType": "string",
          "name": "_file_name",
          "type": "string"
        },
        {
          "internalType": "string",
          "name": "_file_type",
          "type": "string"
        },
        {
          "internalType": "address",
          "name": "_patient_addr",
          "type": "address"
        },
        {
          "internalType": "string",
          "name": "_contents",
          "type": "string"
        }
      ],
      "name": "addFile",
      "outputs": [],
      "payable": false,
      "stateMutability": "nonpayable",
      "type": "function"
    },
    {
      "constant": false,
      "inputs": [
        {
          "internalType": "address",
          "name": "_doctor_address",
          "type": "address"
        }
      ],
      "name": "grantDoctorAccess",
      "outputs": [],
      "payable": false,
      "stateMutability": "nonpayable",
      "type": "function"
    },
    {
      "constant": true,
      "inputs": [
        {
          "internalType": "address",
          "name": "_patient_requested",
          "type": "address"
        }
      ],
      "name": "getPatientInfoForDoctor",
      "outputs": [
        {
          "internalType": "string",
          "name": "",
          "type": "string"
        },
        {
          "internalType": "uint8",
          "name": "",
          "type": "uint8"
        },
        {
          "internalType": "bytes32[]",
          "name": "",
          "type": "bytes32[]"
        }
      ],
      "payable": false,
      "stateMutability": "view",
      "type": "function"
    },
    {
      "constant": true,
      "inputs": [
        {
          "internalType": "address",
          "name": "_doctor_requested",
          "type": "address"
        }
      ],
      "name": "getDoctorInfoForPatient",
      "outputs": [
        {
          "internalType": "string",
          "name": "",
          "type": "string"
        },
        {
          "internalType": "string",
          "name": "",
          "type": "string"
        }
      ],
      "payable": false,
      "stateMutability": "view",
      "type": "function"
    }
  ],
  "bytecode": "0x608060405234801561001057600080fd5b5033600660006101000a81548173ffffffffffffffffffffffffffffffffffffffff021916908373ffffffffffffffffffffffffffffffffffffffff160217905550614e2d806100616000396000f3fe608060405234801561001057600080fd5b50600436106100b45760003560e01c80638b35bb88116100715780638b35bb88146107d0578063b380f5c61461081a578063bb56df87146108e5578063f308701c14610b97578063f880680b14610da0578063fe59cc1a14610e6f576100b4565b80630fcd3730146100b957806312e0808f14610160578063326df664146101a457806354f509b3146102c45780636da1ca66146103ed5780637120203a146105bf575b600080fd5b6100e5600480360360208110156100cf57600080fd5b8101908080359060200190929190505050610f81565b6040518080602001828103825283818151815260200191508051906020019080838360005b8381101561012557808201518184015260208101905061010a565b50505050905090810190601f1680156101525780820380516001836020036101000a031916815260200191505b509250505060405180910390f35b6101a26004803603602081101561017657600080fd5b81019080803573ffffffffffffffffffffffffffffffffffffffff1690602001909291905050506110fd565b005b6101ac6118af565b60405180806020018560ff1660ff1681526020018060200180602001848103845288818151815260200191508051906020019080838360005b838110156102005780820151818401526020810190506101e5565b50505050905090810190601f16801561022d5780820380516001836020036101000a031916815260200191505b50848103835286818151815260200191508051906020019060200280838360005b8381101561026957808201518184015260208101905061024e565b50505050905001848103825285818151815260200191508051906020019060200280838360005b838110156102ab578082015181840152602081019050610290565b5050505090500197505050505050505060405180910390f35b610306600480360360208110156102da57600080fd5b81019080803573ffffffffffffffffffffffffffffffffffffffff169060200190929190505050611dc0565b604051808060200180602001838103835285818151815260200191508051906020019080838360005b8381101561034a57808201518184015260208101905061032f565b50505050905090810190601f1680156103775780820380516001836020036101000a031916815260200191505b50838103825284818151815260200191508051906020019080838360005b838110156103b0578082015181840152602081019050610395565b50505050905090810190601f1680156103dd5780820380516001836020036101000a031916815260200191505b5094505050505060405180910390f35b61053d6004803603604081101561040357600080fd5b810190808035906020019064010000000081111561042057600080fd5b82018360208201111561043257600080fd5b8035906020019184600183028401116401000000008311171561045457600080fd5b91908080601f016020809104026020016040519081016040528093929190818152602001838380828437600081840152601f19601f820116905080830192505050505050509192919290803590602001906401000000008111156104b757600080fd5b8201836020820111156104c957600080fd5b803590602001918460018302840111640100000000831117156104eb57600080fd5b91908080601f016020809104026020016040519081016040528093929190818152602001838380828437600081840152601f19601f82011690508083019250505050505050919291929050505061262b565b6040518083815260200180602001828103825283818151815260200191508051906020019080838360005b83811015610583578082015181840152602081019050610568565b50505050905090810190601f1680156105b05780820380516001836020036101000a031916815260200191505b50935050505060405180910390f35b610685600480360360408110156105d557600080fd5b81019080803590602001906401000000008111156105f257600080fd5b82018360208201111561060457600080fd5b8035906020019184600183028401116401000000008311171561062657600080fd5b91908080601f016020809104026020016040519081016040528093929190818152602001838380828437600081840152601f19601f820116905080830192505050505050509192919290803560ff169060200190929190505050612809565b60405180806020018660ff1660ff1681526020018573ffffffffffffffffffffffffffffffffffffffff1673ffffffffffffffffffffffffffffffffffffffff1681526020018060200180602001848103845289818151815260200191508051906020019080838360005b8381101561070b5780820151818401526020810190506106f0565b50505050905090810190601f1680156107385780820380516001836020036101000a031916815260200191505b50848103835286818151815260200191508051906020019060200280838360005b83811015610774578082015181840152602081019050610759565b50505050905001848103825285818151815260200191508051906020019060200280838360005b838110156107b657808201518184015260208101905061079b565b505050509050019850505050505050505060405180910390f35b6107d8612ff0565b604051808273ffffffffffffffffffffffffffffffffffffffff1673ffffffffffffffffffffffffffffffffffffffff16815260200191505060405180910390f35b610822612ff8565b604051808060200180602001838103835285818151815260200191508051906020019080838360005b8381101561086657808201518184015260208101905061084b565b50505050905090810190601f1680156108935780820380516001836020036101000a031916815260200191505b50838103825284818151815260200191508051906020019060200280838360005b838110156108cf5780820151818401526020810190506108b4565b5050505090500194505050505060405180910390f35b610a35600480360360408110156108fb57600080fd5b810190808035906020019064010000000081111561091857600080fd5b82018360208201111561092a57600080fd5b8035906020019184600183028401116401000000008311171561094c57600080fd5b91908080601f016020809104026020016040519081016040528093929190818152602001838380828437600081840152601f19601f820116905080830192505050505050509192919290803590602001906401000000008111156109af57600080fd5b8201836020820111156109c157600080fd5b803590602001918460018302840111640100000000831117156109e357600080fd5b91908080601f016020809104026020016040519081016040528093929190818152602001838380828437600081840152601f19601f82011690508083019250505050505050919291929050505061354a565b60405180806020018573ffffffffffffffffffffffffffffffffffffffff1673ffffffffffffffffffffffffffffffffffffffff1681526020018060200180602001848103845288818151815260200191508051906020019080838360005b83811015610aaf578082015181840152602081019050610a94565b50505050905090810190601f168015610adc5780820380516001836020036101000a031916815260200191505b50848103835286818151815260200191508051906020019060200280838360005b83811015610b18578082015181840152602081019050610afd565b50505050905001848103825285818151815260200191508051906020019080838360005b83811015610b57578082015181840152602081019050610b3c565b50505050905090810190601f168015610b845780820380516001836020036101000a031916815260200191505b5097505050505050505060405180910390f35b610d9e60048036036080811015610bad57600080fd5b8101908080359060200190640100000000811115610bca57600080fd5b820183602082011115610bdc57600080fd5b80359060200191846001830284011164010000000083111715610bfe57600080fd5b91908080601f016020809104026020016040519081016040528093929190818152602001838380828437600081840152601f19601f82011690508083019250505050505050919291929080359060200190640100000000811115610c6157600080fd5b820183602082011115610c7357600080fd5b80359060200191846001830284011164010000000083111715610c9557600080fd5b91908080601f016020809104026020016040519081016040528093929190818152602001838380828437600081840152601f19601f820116905080830192505050505050509192919290803573ffffffffffffffffffffffffffffffffffffffff16906020019092919080359060200190640100000000811115610d1857600080fd5b820183602082011115610d2a57600080fd5b80359060200191846001830284011164010000000083111715610d4c57600080fd5b91908080601f016020809104026020016040519081016040528093929190818152602001838380828437600081840152601f19601f820116905080830192505050505050509192919290505050613d63565b005b610e5960048036036020811015610db657600080fd5b8101908080359060200190640100000000811115610dd357600080fd5b820183602082011115610de557600080fd5b80359060200191846001830284011164010000000083111715610e0757600080fd5b91908080601f016020809104026020016040519081016040528093929190818152602001838380828437600081840152601f19601f8201169050808301925050505050505091929192905050506142c8565b6040518082815260200191505060405180910390f35b610eb160048036036020811015610e8557600080fd5b81019080803573ffffffffffffffffffffffffffffffffffffffff169060200190929190505050614343565b60405180806020018460ff1660ff16815260200180602001838103835286818151815260200191508051906020019080838360005b83811015610f01578082015181840152602081019050610ee6565b50505050905090810190601f168015610f2e5780820380516001836020036101000a031916815260200191505b50838103825284818151815260200191508051906020019060200280838360005b83811015610f6a578082015181840152602081019050610f4f565b505050509050019550505050505060405180910390f35b6060816060600260008381526020019081526020016000206000018054600181600116156101000203166002900480601f0160208091040260200160405190810160405280929190818152602001828054600181600116156101000203166002900480156110305780601f1061100557610100808354040283529160200191611030565b820191906000526020600020905b81548152906001019060200180831161101357829003601f168201915b50505050509050600081511161104557600080fd5b600260008581526020019081526020016000206000018054600181600116156101000203166002900480601f0160208091040260200160405190810160405280929190818152602001828054600181600116156101000203166002900480156110ef5780601f106110c4576101008083540402835291602001916110ef565b820191906000526020600020905b8154815290600101906020018083116110d257829003601f168201915b505050505092505050919050565b33611106614b8e565b600360008373ffffffffffffffffffffffffffffffffffffffff1673ffffffffffffffffffffffffffffffffffffffff1681526020019081526020016000206040518060a0016040529081600082018054600181600116156101000203166002900480601f0160208091040260200160405190810160405280929190818152602001828054600181600116156101000203166002900480156111e95780601f106111be576101008083540402835291602001916111e9565b820191906000526020600020905b8154815290600101906020018083116111cc57829003601f168201915b505050505081526020016001820160009054906101000a900460ff1660ff1660ff1681526020016001820160019054906101000a900473ffffffffffffffffffffffffffffffffffffffff1673ffffffffffffffffffffffffffffffffffffffff1673ffffffffffffffffffffffffffffffffffffffff168152602001600282018054806020026020016040519081016040528092919081815260200182805480156112b457602002820191906000526020600020905b8154815260200190600101908083116112a0575b505050505081526020016003820180548060200260200160405190810160405280929190818152602001828054801561134257602002820191906000526020600020905b8160009054906101000a900473ffffffffffffffffffffffffffffffffffffffff1673ffffffffffffffffffffffffffffffffffffffff16815260200190600101908083116112f8575b5050505050815250509050600073ffffffffffffffffffffffffffffffffffffffff16816040015173ffffffffffffffffffffffffffffffffffffffff161161138a57600080fd5b33611393614bd6565b6000808373ffffffffffffffffffffffffffffffffffffffff1673ffffffffffffffffffffffffffffffffffffffff168152602001908152602001600020604051806080016040529081600082018054600181600116156101000203166002900480601f0160208091040260200160405190810160405280929190818152602001828054600181600116156101000203166002900480156114755780601f1061144a57610100808354040283529160200191611475565b820191906000526020600020905b81548152906001019060200180831161145857829003601f168201915b50505050508152602001600182018054600181600116156101000203166002900480601f0160208091040260200160405190810160405280929190818152602001828054600181600116156101000203166002900480156115175780601f106114ec57610100808354040283529160200191611517565b820191906000526020600020905b8154815290600101906020018083116114fa57829003601f168201915b505050505081526020016002820160009054906101000a900473ffffffffffffffffffffffffffffffffffffffff1673ffffffffffffffffffffffffffffffffffffffff1673ffffffffffffffffffffffffffffffffffffffff168152602001600382018054806020026020016040519081016040528092919081815260200182805480156115fb57602002820191906000526020600020905b8160009054906101000a900473ffffffffffffffffffffffffffffffffffffffff1673ffffffffffffffffffffffffffffffffffffffff16815260200190600101908083116115b1575b5050505050815250509050600073ffffffffffffffffffffffffffffffffffffffff16816040015173ffffffffffffffffffffffffffffffffffffffff161161164357600080fd5b6000600360003373ffffffffffffffffffffffffffffffffffffffff1673ffffffffffffffffffffffffffffffffffffffff168152602001908152602001600020905060008060008873ffffffffffffffffffffffffffffffffffffffff1673ffffffffffffffffffffffffffffffffffffffff16815260200190815260200160002090506001600460003373ffffffffffffffffffffffffffffffffffffffff1673ffffffffffffffffffffffffffffffffffffffff16815260200190815260200160002060008973ffffffffffffffffffffffffffffffffffffffff1673ffffffffffffffffffffffffffffffffffffffff168152602001908152602001600020541061175157600080fd5b6000826003018890806001815401808255809150509060018203906000526020600020016000909192909190916101000a81548173ffffffffffffffffffffffffffffffffffffffff021916908373ffffffffffffffffffffffffffffffffffffffff160217905550905080600460003373ffffffffffffffffffffffffffffffffffffffff1673ffffffffffffffffffffffffffffffffffffffff16815260200190815260200160002060008a73ffffffffffffffffffffffffffffffffffffffff1673ffffffffffffffffffffffffffffffffffffffff16815260200190815260200160002081905550816003013390806001815401808255809150509060018203906000526020600020016000909192909190916101000a81548173ffffffffffffffffffffffffffffffffffffffff021916908373ffffffffffffffffffffffffffffffffffffffff160217905550505050505050505050565b60606000606080336118bf614b8e565b600360008373ffffffffffffffffffffffffffffffffffffffff1673ffffffffffffffffffffffffffffffffffffffff1681526020019081526020016000206040518060a0016040529081600082018054600181600116156101000203166002900480601f0160208091040260200160405190810160405280929190818152602001828054600181600116156101000203166002900480156119a25780601f10611977576101008083540402835291602001916119a2565b820191906000526020600020905b81548152906001019060200180831161198557829003601f168201915b505050505081526020016001820160009054906101000a900460ff1660ff1660ff1681526020016001820160019054906101000a900473ffffffffffffffffffffffffffffffffffffffff1673ffffffffffffffffffffffffffffffffffffffff1673ffffffffffffffffffffffffffffffffffffffff16815260200160028201805480602002602001604051908101604052809291908181526020018280548015611a6d57602002820191906000526020600020905b815481526020019060010190808311611a59575b5050505050815260200160038201805480602002602001604051908101604052809291908181526020018280548015611afb57602002820191906000526020600020905b8160009054906101000a900473ffffffffffffffffffffffffffffffffffffffff1673ffffffffffffffffffffffffffffffffffffffff1681526020019060010190808311611ab1575b5050505050815250509050600073ffffffffffffffffffffffffffffffffffffffff16816040015173ffffffffffffffffffffffffffffffffffffffff1611611b4357600080fd5b611b4b614b8e565b600360003373ffffffffffffffffffffffffffffffffffffffff1673ffffffffffffffffffffffffffffffffffffffff1681526020019081526020016000206040518060a0016040529081600082018054600181600116156101000203166002900480601f016020809104026020016040519081016040528092919081815260200182805460018160011615610100020316600290048015611c2e5780601f10611c0357610100808354040283529160200191611c2e565b820191906000526020600020905b815481529060010190602001808311611c1157829003601f168201915b505050505081526020016001820160009054906101000a900460ff1660ff1660ff1681526020016001820160019054906101000a900473ffffffffffffffffffffffffffffffffffffffff1673ffffffffffffffffffffffffffffffffffffffff1673ffffffffffffffffffffffffffffffffffffffff16815260200160028201805480602002602001604051908101604052809291908181526020018280548015611cf957602002820191906000526020600020905b815481526020019060010190808311611ce5575b5050505050815260200160038201805480602002602001604051908101604052809291908181526020018280548015611d8757602002820191906000526020600020905b8160009054906101000a900473ffffffffffffffffffffffffffffffffffffffff1673ffffffffffffffffffffffffffffffffffffffff1681526020019060010190808311611d3d575b50505050508152505090508060000151816020015182606001518360800151839350819150809050965096509650965050505090919293565b60608033611dcc614b8e565b600360008373ffffffffffffffffffffffffffffffffffffffff1673ffffffffffffffffffffffffffffffffffffffff1681526020019081526020016000206040518060a0016040529081600082018054600181600116156101000203166002900480601f016020809104026020016040519081016040528092919081815260200182805460018160011615610100020316600290048015611eaf5780601f10611e8457610100808354040283529160200191611eaf565b820191906000526020600020905b815481529060010190602001808311611e9257829003601f168201915b505050505081526020016001820160009054906101000a900460ff1660ff1660ff1681526020016001820160019054906101000a900473ffffffffffffffffffffffffffffffffffffffff1673ffffffffffffffffffffffffffffffffffffffff1673ffffffffffffffffffffffffffffffffffffffff16815260200160028201805480602002602001604051908101604052809291908181526020018280548015611f7a57602002820191906000526020600020905b815481526020019060010190808311611f66575b505050505081526020016003820180548060200260200160405190810160405280929190818152602001828054801561200857602002820191906000526020600020905b8160009054906101000a900473ffffffffffffffffffffffffffffffffffffffff1673ffffffffffffffffffffffffffffffffffffffff1681526020019060010190808311611fbe575b5050505050815250509050600073ffffffffffffffffffffffffffffffffffffffff16816040015173ffffffffffffffffffffffffffffffffffffffff161161205057600080fd5b84612059614bd6565b6000808373ffffffffffffffffffffffffffffffffffffffff1673ffffffffffffffffffffffffffffffffffffffff168152602001908152602001600020604051806080016040529081600082018054600181600116156101000203166002900480601f01602080910402602001604051908101604052809291908181526020018280546001816001161561010002031660029004801561213b5780601f106121105761010080835404028352916020019161213b565b820191906000526020600020905b81548152906001019060200180831161211e57829003601f168201915b50505050508152602001600182018054600181600116156101000203166002900480601f0160208091040260200160405190810160405280929190818152602001828054600181600116156101000203166002900480156121dd5780601f106121b2576101008083540402835291602001916121dd565b820191906000526020600020905b8154815290600101906020018083116121c057829003601f168201915b505050505081526020016002820160009054906101000a900473ffffffffffffffffffffffffffffffffffffffff1673ffffffffffffffffffffffffffffffffffffffff1673ffffffffffffffffffffffffffffffffffffffff168152602001600382018054806020026020016040519081016040528092919081815260200182805480156122c157602002820191906000526020600020905b8160009054906101000a900473ffffffffffffffffffffffffffffffffffffffff1673ffffffffffffffffffffffffffffffffffffffff1681526020019060010190808311612277575b5050505050815250509050600073ffffffffffffffffffffffffffffffffffffffff16816040015173ffffffffffffffffffffffffffffffffffffffff161161230957600080fd5b612311614bd6565b6000808973ffffffffffffffffffffffffffffffffffffffff1673ffffffffffffffffffffffffffffffffffffffff168152602001908152602001600020604051806080016040529081600082018054600181600116156101000203166002900480601f0160208091040260200160405190810160405280929190818152602001828054600181600116156101000203166002900480156123f35780601f106123c8576101008083540402835291602001916123f3565b820191906000526020600020905b8154815290600101906020018083116123d657829003601f168201915b50505050508152602001600182018054600181600116156101000203166002900480601f0160208091040260200160405190810160405280929190818152602001828054600181600116156101000203166002900480156124955780601f1061246a57610100808354040283529160200191612495565b820191906000526020600020905b81548152906001019060200180831161247857829003601f168201915b505050505081526020016002820160009054906101000a900473ffffffffffffffffffffffffffffffffffffffff1673ffffffffffffffffffffffffffffffffffffffff1673ffffffffffffffffffffffffffffffffffffffff1681526020016003820180548060200260200160405190810160405280929190818152602001828054801561257957602002820191906000526020600020905b8160009054906101000a900473ffffffffffffffffffffffffffffffffffffffff1673ffffffffffffffffffffffffffffffffffffffff168152602001906001019080831161252f575b50505050508152505090506000600160008a73ffffffffffffffffffffffffffffffffffffffff1673ffffffffffffffffffffffffffffffffffffffff16815260200190815260200160002060003373ffffffffffffffffffffffffffffffffffffffff1673ffffffffffffffffffffffffffffffffffffffff168152602001908152602001600020541161260d57600080fd5b80600001518160200151819150809050965096505050505050915091565b600060606000846040516020018082805190602001908083835b602083106126685780518252602082019150602081019050602083039250612645565b6001836020036101000a03801982511681845116808217855250505050505090500191505060405160208183030381529060405280519060200120905060405180608001604052808581526020016040518060400160405280600a81526020017f626c6f6f642074657374000000000000000000000000000000000000000000008152508152602001600073ffffffffffffffffffffffffffffffffffffffff16815260200186815250600260008381526020019081526020016000206000820151816000019080519060200190612741929190614c14565b50602082015181600101908051906020019061275e929190614c14565b5060408201518160020160006101000a81548173ffffffffffffffffffffffffffffffffffffffff021916908373ffffffffffffffffffffffffffffffffffffffff16021790555060608201518160030190805190602001906127c2929190614c14565b50905050806040518060400160405280600c81526020017f426c6f6f6420546573742031000000000000000000000000000000000000000081525092509250509250929050565b6060600080606080612819614b8e565b600360003373ffffffffffffffffffffffffffffffffffffffff1673ffffffffffffffffffffffffffffffffffffffff1681526020019081526020016000206040518060a0016040529081600082018054600181600116156101000203166002900480601f0160208091040260200160405190810160405280929190818152602001828054600181600116156101000203166002900480156128fc5780601f106128d1576101008083540402835291602001916128fc565b820191906000526020600020905b8154815290600101906020018083116128df57829003601f168201915b505050505081526020016001820160009054906101000a900460ff1660ff1660ff1681526020016001820160019054906101000a900473ffffffffffffffffffffffffffffffffffffffff1673ffffffffffffffffffffffffffffffffffffffff1673ffffffffffffffffffffffffffffffffffffffff168152602001600282018054806020026020016040519081016040528092919081815260200182805480156129c757602002820191906000526020600020905b8154815260200190600101908083116129b3575b5050505050815260200160038201805480602002602001604051908101604052809291908181526020018280548015612a5557602002820191906000526020600020905b8160009054906101000a900473ffffffffffffffffffffffffffffffffffffffff1673ffffffffffffffffffffffffffffffffffffffff1681526020019060010190808311612a0b575b5050505050815250509050600073ffffffffffffffffffffffffffffffffffffffff16816040015173ffffffffffffffffffffffffffffffffffffffff161115612a9e57600080fd5b6040518060000190506040518091039020886040516020018082805190602001908083835b60208310612ae65780518252602082019150602081019050602083039250612ac3565b6001836020036101000a038019825116818451168082178552505050505050905001915050604051602081830303815290604052805190602001201415612b2c57600080fd5b60008760ff16118015612b42575060788760ff16105b612b4b57600080fd5b6040518060a001604052808981526020018860ff1681526020013373ffffffffffffffffffffffffffffffffffffffff1681526020016000604051908082528060200260200182016040528015612bb15781602001602082028038833980820191505090505b5081526020016000604051908082528060200260200182016040528015612be75781602001602082028038833980820191505090505b50815250600360003373ffffffffffffffffffffffffffffffffffffffff1673ffffffffffffffffffffffffffffffffffffffff1681526020019081526020016000206000820151816000019080519060200190612c46929190614c14565b5060208201518160010160006101000a81548160ff021916908360ff16021790555060408201518160010160016101000a81548173ffffffffffffffffffffffffffffffffffffffff021916908373ffffffffffffffffffffffffffffffffffffffff1602179055506060820151816002019080519060200190612ccb929190614c94565b506080820151816003019080519060200190612ce8929190614ce1565b50905050600360003373ffffffffffffffffffffffffffffffffffffffff1673ffffffffffffffffffffffffffffffffffffffff168152602001908152602001600020600001600360003373ffffffffffffffffffffffffffffffffffffffff1673ffffffffffffffffffffffffffffffffffffffff16815260200190815260200160002060010160009054906101000a900460ff16600360003373ffffffffffffffffffffffffffffffffffffffff1673ffffffffffffffffffffffffffffffffffffffff16815260200190815260200160002060010160019054906101000a900473ffffffffffffffffffffffffffffffffffffffff16600360003373ffffffffffffffffffffffffffffffffffffffff1673ffffffffffffffffffffffffffffffffffffffff168152602001908152602001600020600201600360003373ffffffffffffffffffffffffffffffffffffffff1673ffffffffffffffffffffffffffffffffffffffff168152602001908152602001600020600301848054600181600116156101000203166002900480601f016020809104026020016040519081016040528092919081815260200182805460018160011615610100020316600290048015612efa5780601f10612ecf57610100808354040283529160200191612efa565b820191906000526020600020905b815481529060010190602001808311612edd57829003601f168201915b5050505050945081805480602002602001604051908101604052809291908181526020018280548015612f4c57602002820191906000526020600020905b815481526020019060010190808311612f38575b5050505050915080805480602002602001604051908101604052809291908181526020018280548015612fd457602002820191906000526020600020905b8160009054906101000a900473ffffffffffffffffffffffffffffffffffffffff1673ffffffffffffffffffffffffffffffffffffffff1681526020019060010190808311612f8a575b5050505050905095509550955095509550509295509295909350565b600033905090565b60608033613004614bd6565b6000808373ffffffffffffffffffffffffffffffffffffffff1673ffffffffffffffffffffffffffffffffffffffff168152602001908152602001600020604051806080016040529081600082018054600181600116156101000203166002900480601f0160208091040260200160405190810160405280929190818152602001828054600181600116156101000203166002900480156130e65780601f106130bb576101008083540402835291602001916130e6565b820191906000526020600020905b8154815290600101906020018083116130c957829003601f168201915b50505050508152602001600182018054600181600116156101000203166002900480601f0160208091040260200160405190810160405280929190818152602001828054600181600116156101000203166002900480156131885780601f1061315d57610100808354040283529160200191613188565b820191906000526020600020905b81548152906001019060200180831161316b57829003601f168201915b505050505081526020016002820160009054906101000a900473ffffffffffffffffffffffffffffffffffffffff1673ffffffffffffffffffffffffffffffffffffffff1673ffffffffffffffffffffffffffffffffffffffff1681526020016003820180548060200260200160405190810160405280929190818152602001828054801561326c57602002820191906000526020600020905b8160009054906101000a900473ffffffffffffffffffffffffffffffffffffffff1673ffffffffffffffffffffffffffffffffffffffff1681526020019060010190808311613222575b5050505050815250509050600073ffffffffffffffffffffffffffffffffffffffff16816040015173ffffffffffffffffffffffffffffffffffffffff16116132b457600080fd5b6132bc614bd6565b6000803373ffffffffffffffffffffffffffffffffffffffff1673ffffffffffffffffffffffffffffffffffffffff168152602001908152602001600020604051806080016040529081600082018054600181600116156101000203166002900480601f01602080910402602001604051908101604052809291908181526020018280546001816001161561010002031660029004801561339e5780601f106133735761010080835404028352916020019161339e565b820191906000526020600020905b81548152906001019060200180831161338157829003601f168201915b50505050508152602001600182018054600181600116156101000203166002900480601f0160208091040260200160405190810160405280929190818152602001828054600181600116156101000203166002900480156134405780601f1061341557610100808354040283529160200191613440565b820191906000526020600020905b81548152906001019060200180831161342357829003601f168201915b505050505081526020016002820160009054906101000a900473ffffffffffffffffffffffffffffffffffffffff1673ffffffffffffffffffffffffffffffffffffffff1673ffffffffffffffffffffffffffffffffffffffff1681526020016003820180548060200260200160405190810160405280929190818152602001828054801561352457602002820191906000526020600020905b8160009054906101000a900473ffffffffffffffffffffffffffffffffffffffff1673ffffffffffffffffffffffffffffffffffffffff16815260200190600101908083116134da575b505050505081525050905080600001518160600151819150809050945094505050509091565b60606000606080613559614bd6565b6000803373ffffffffffffffffffffffffffffffffffffffff1673ffffffffffffffffffffffffffffffffffffffff168152602001908152602001600020604051806080016040529081600082018054600181600116156101000203166002900480601f01602080910402602001604051908101604052809291908181526020018280546001816001161561010002031660029004801561363b5780601f106136105761010080835404028352916020019161363b565b820191906000526020600020905b81548152906001019060200180831161361e57829003601f168201915b50505050508152602001600182018054600181600116156101000203166002900480601f0160208091040260200160405190810160405280929190818152602001828054600181600116156101000203166002900480156136dd5780601f106136b2576101008083540402835291602001916136dd565b820191906000526020600020905b8154815290600101906020018083116136c057829003601f168201915b505050505081526020016002820160009054906101000a900473ffffffffffffffffffffffffffffffffffffffff1673ffffffffffffffffffffffffffffffffffffffff1673ffffffffffffffffffffffffffffffffffffffff168152602001600382018054806020026020016040519081016040528092919081815260200182805480156137c157602002820191906000526020600020905b8160009054906101000a900473ffffffffffffffffffffffffffffffffffffffff1673ffffffffffffffffffffffffffffffffffffffff1681526020019060010190808311613777575b50505050508152505090506040518060000190506040518091039020876040516020018082805190602001908083835b6020831061381457805182526020820191506020810190506020830392506137f1565b6001836020036101000a03801982511681845116808217855250505050505090500191505060405160208183030381529060405280519060200120141561385a57600080fd5b6040518060000190506040518091039020866040516020018082805190602001908083835b602083106138a2578051825260208201915060208101905060208303925061387f565b6001836020036101000a0380198251168184511680821785525050505050509050019150506040516020818303038152906040528051906020012014156138e857600080fd5b600073ffffffffffffffffffffffffffffffffffffffff16816040015173ffffffffffffffffffffffffffffffffffffffff16111561392657600080fd5b60405180608001604052808881526020018781526020013373ffffffffffffffffffffffffffffffffffffffff16815260200160006040519080825280602002602001820160405280156139895781602001602082028038833980820191505090505b508152506000803373ffffffffffffffffffffffffffffffffffffffff1673ffffffffffffffffffffffffffffffffffffffff16815260200190815260200160002060008201518160000190805190602001906139e7929190614c14565b506020820151816001019080519060200190613a04929190614c14565b5060408201518160020160006101000a81548173ffffffffffffffffffffffffffffffffffffffff021916908373ffffffffffffffffffffffffffffffffffffffff1602179055506060820151816003019080519060200190613a68929190614ce1565b509050506000803373ffffffffffffffffffffffffffffffffffffffff1673ffffffffffffffffffffffffffffffffffffffff1681526020019081526020016000206000016000803373ffffffffffffffffffffffffffffffffffffffff1673ffffffffffffffffffffffffffffffffffffffff16815260200190815260200160002060020160009054906101000a900473ffffffffffffffffffffffffffffffffffffffff166000803373ffffffffffffffffffffffffffffffffffffffff1673ffffffffffffffffffffffffffffffffffffffff1681526020019081526020016000206003016000803373ffffffffffffffffffffffffffffffffffffffff1673ffffffffffffffffffffffffffffffffffffffff168152602001908152602001600020600101838054600181600116156101000203166002900480601f016020809104026020016040519081016040528092919081815260200182805460018160011615610100020316600290048015613c265780601f10613bfb57610100808354040283529160200191613c26565b820191906000526020600020905b815481529060010190602001808311613c0957829003601f168201915b5050505050935081805480602002602001604051908101604052809291908181526020018280548015613cae57602002820191906000526020600020905b8160009054906101000a900473ffffffffffffffffffffffffffffffffffffffff1673ffffffffffffffffffffffffffffffffffffffff1681526020019060010190808311613c64575b50505050509150808054600181600116156101000203166002900480601f016020809104026020016040519081016040528092919081815260200182805460018160011615610100020316600290048015613d4a5780601f10613d1f57610100808354040283529160200191613d4a565b820191906000526020600020905b815481529060010190602001808311613d2d57829003601f168201915b5050505050905094509450945094505092959194509250565b33613d6c614bd6565b6000808373ffffffffffffffffffffffffffffffffffffffff1673ffffffffffffffffffffffffffffffffffffffff168152602001908152602001600020604051806080016040529081600082018054600181600116156101000203166002900480601f016020809104026020016040519081016040528092919081815260200182805460018160011615610100020316600290048015613e4e5780601f10613e2357610100808354040283529160200191613e4e565b820191906000526020600020905b815481529060010190602001808311613e3157829003601f168201915b50505050508152602001600182018054600181600116156101000203166002900480601f016020809104026020016040519081016040528092919081815260200182805460018160011615610100020316600290048015613ef05780601f10613ec557610100808354040283529160200191613ef0565b820191906000526020600020905b815481529060010190602001808311613ed357829003601f168201915b505050505081526020016002820160009054906101000a900473ffffffffffffffffffffffffffffffffffffffff1673ffffffffffffffffffffffffffffffffffffffff1673ffffffffffffffffffffffffffffffffffffffff16815260200160038201805480602002602001604051908101604052809291908181526020018280548015613fd457602002820191906000526020600020905b8160009054906101000a900473ffffffffffffffffffffffffffffffffffffffff1673ffffffffffffffffffffffffffffffffffffffff1681526020019060010190808311613f8a575b5050505050815250509050600073ffffffffffffffffffffffffffffffffffffffff16816040015173ffffffffffffffffffffffffffffffffffffffff161161401c57600080fd5b6000836040516020018080602001828103825283818151815260200191508051906020019080838360005b83811015614062578082015181840152602081019050614047565b50505050905090810190601f16801561408f5780820380516001836020036101000a031916815260200191505b50925050506040516020818303038152906040528051906020012090506000600360008773ffffffffffffffffffffffffffffffffffffffff1673ffffffffffffffffffffffffffffffffffffffff16815260200190815260200160002090506001600560008873ffffffffffffffffffffffffffffffffffffffff1673ffffffffffffffffffffffffffffffffffffffff1681526020019081526020016000206000848152602001908152602001600020541061414c57600080fd5b60405180608001604052808981526020018881526020013373ffffffffffffffffffffffffffffffffffffffff168152602001868152506002600084815260200190815260200160002060008201518160000190805190602001906141b2929190614c14565b5060208201518160010190805190602001906141cf929190614c14565b5060408201518160020160006101000a81548173ffffffffffffffffffffffffffffffffffffffff021916908373ffffffffffffffffffffffffffffffffffffffff1602179055506060820151816003019080519060200190614233929190614c14565b509050506000816002018390806001815401808255809150509060018203906000526020600020016000909192909190915055905080600560008973ffffffffffffffffffffffffffffffffffffffff1673ffffffffffffffffffffffffffffffffffffffff168152602001908152602001600020600085815260200190815260200160002081905550505050505050505050565b6000816040516020018082805190602001908083835b6020831061430157805182526020820191506020810190506020830392506142de565b6001836020036101000a038019825116818451168082178552505050505050905001915050604051602081830303815290604052805190602001209050919050565b60606000606083614352614b8e565b600360008373ffffffffffffffffffffffffffffffffffffffff1673ffffffffffffffffffffffffffffffffffffffff1681526020019081526020016000206040518060a0016040529081600082018054600181600116156101000203166002900480601f0160208091040260200160405190810160405280929190818152602001828054600181600116156101000203166002900480156144355780601f1061440a57610100808354040283529160200191614435565b820191906000526020600020905b81548152906001019060200180831161441857829003601f168201915b505050505081526020016001820160009054906101000a900460ff1660ff1660ff1681526020016001820160019054906101000a900473ffffffffffffffffffffffffffffffffffffffff1673ffffffffffffffffffffffffffffffffffffffff1673ffffffffffffffffffffffffffffffffffffffff1681526020016002820180548060200260200160405190810160405280929190818152602001828054801561450057602002820191906000526020600020905b8154815260200190600101908083116144ec575b505050505081526020016003820180548060200260200160405190810160405280929190818152602001828054801561458e57602002820191906000526020600020905b8160009054906101000a900473ffffffffffffffffffffffffffffffffffffffff1673ffffffffffffffffffffffffffffffffffffffff1681526020019060010190808311614544575b5050505050815250509050600073ffffffffffffffffffffffffffffffffffffffff16816040015173ffffffffffffffffffffffffffffffffffffffff16116145d657600080fd5b336145df614bd6565b6000808373ffffffffffffffffffffffffffffffffffffffff1673ffffffffffffffffffffffffffffffffffffffff168152602001908152602001600020604051806080016040529081600082018054600181600116156101000203166002900480601f0160208091040260200160405190810160405280929190818152602001828054600181600116156101000203166002900480156146c15780601f10614696576101008083540402835291602001916146c1565b820191906000526020600020905b8154815290600101906020018083116146a457829003601f168201915b50505050508152602001600182018054600181600116156101000203166002900480601f0160208091040260200160405190810160405280929190818152602001828054600181600116156101000203166002900480156147635780601f1061473857610100808354040283529160200191614763565b820191906000526020600020905b81548152906001019060200180831161474657829003601f168201915b505050505081526020016002820160009054906101000a900473ffffffffffffffffffffffffffffffffffffffff1673ffffffffffffffffffffffffffffffffffffffff1673ffffffffffffffffffffffffffffffffffffffff1681526020016003820180548060200260200160405190810160405280929190818152602001828054801561484757602002820191906000526020600020905b8160009054906101000a900473ffffffffffffffffffffffffffffffffffffffff1673ffffffffffffffffffffffffffffffffffffffff16815260200190600101908083116147fd575b5050505050815250509050600073ffffffffffffffffffffffffffffffffffffffff16816040015173ffffffffffffffffffffffffffffffffffffffff161161488f57600080fd5b614897614b8e565b600360008a73ffffffffffffffffffffffffffffffffffffffff1673ffffffffffffffffffffffffffffffffffffffff1681526020019081526020016000206040518060a0016040529081600082018054600181600116156101000203166002900480601f01602080910402602001604051908101604052809291908181526020018280546001816001161561010002031660029004801561497a5780601f1061494f5761010080835404028352916020019161497a565b820191906000526020600020905b81548152906001019060200180831161495d57829003601f168201915b505050505081526020016001820160009054906101000a900460ff1660ff1660ff1681526020016001820160019054906101000a900473ffffffffffffffffffffffffffffffffffffffff1673ffffffffffffffffffffffffffffffffffffffff1673ffffffffffffffffffffffffffffffffffffffff16815260200160028201805480602002602001604051908101604052809291908181526020018280548015614a4557602002820191906000526020600020905b815481526020019060010190808311614a31575b5050505050815260200160038201805480602002602001604051908101604052809291908181526020018280548015614ad357602002820191906000526020600020905b8160009054906101000a900473ffffffffffffffffffffffffffffffffffffffff1673ffffffffffffffffffffffffffffffffffffffff1681526020019060010190808311614a89575b50505050508152505090506000600460008b73ffffffffffffffffffffffffffffffffffffffff1673ffffffffffffffffffffffffffffffffffffffff16815260200190815260200160002060003373ffffffffffffffffffffffffffffffffffffffff1673ffffffffffffffffffffffffffffffffffffffff1681526020019081526020016000205411614b6757600080fd5b80600001518160200151826060015182925080905097509750975050505050509193909250565b6040518060a0016040528060608152602001600060ff168152602001600073ffffffffffffffffffffffffffffffffffffffff16815260200160608152602001606081525090565b60405180608001604052806060815260200160608152602001600073ffffffffffffffffffffffffffffffffffffffff168152602001606081525090565b828054600181600116156101000203166002900490600052602060002090601f016020900481019282601f10614c5557805160ff1916838001178555614c83565b82800160010185558215614c83579182015b82811115614c82578251825591602001919060010190614c67565b5b509050614c909190614d6b565b5090565b828054828255906000526020600020908101928215614cd0579160200282015b82811115614ccf578251825591602001919060010190614cb4565b5b509050614cdd9190614d90565b5090565b828054828255906000526020600020908101928215614d5a579160200282015b82811115614d595782518260006101000a81548173ffffffffffffffffffffffffffffffffffffffff021916908373ffffffffffffffffffffffffffffffffffffffff16021790555091602001919060010190614d01565b5b509050614d679190614db5565b5090565b614d8d91905b80821115614d89576000816000905550600101614d71565b5090565b90565b614db291905b80821115614dae576000816000905550600101614d96565b5090565b90565b614df591905b80821115614df157600081816101000a81549073ffffffffffffffffffffffffffffffffffffffff021916905550600101614dbb565b5090565b9056fea265627a7a723158206a0bfd0d543ef0a5ee4cc0584c20de4e4a7abd9a8342354c90bd2533c2e680dc64736f6c63430005100032",
  "source": "pragma solidity >=0.4.25 <0.7.0;\n\n// Service contract, combines patient, doctor, file contracts\n// and handles higher-level functionality\ncontract Service {\n    // Doctor Mappings\n    mapping (address => doctor) internal doctors;\n    mapping (address => mapping(address => uint)) internal doctorToPatient;\n\n    // File mappings\n    mapping (bytes32 => file) internal fileHashDict;\n\n    // Patient mappings\n    mapping (address => patient) internal patients; // dictionary of all patients\n    mapping (address => mapping (address => uint)) internal patientToDoctor; // dictionary mapping patient to doctor\n    mapping (address => mapping (bytes32 => uint)) internal patientToFile; // dictionary mapping patient to files\n\n    // Doctor struct\n    struct doctor {\n        string name;\n        string clinic;\n        address addr;\n        address[] patient_list;\n    }\n\n    // File struct\n    struct file {\n        string file_name;\n        string record_type;\n        address uploader;\n        string contents;\n    }\n\n    // Patient struct\n    struct patient {\n        string name;\n        uint8 age;\n        address addr;\n        bytes32[] files; // hashes of file that belong to this user for display purpose\n        address[] doctor_list;\n    }\n\n    // Doctor methods:\n    \n    // check address is a valid doctor\n    modifier checkDoctor(address addr) {\n        doctor memory d = doctors[addr];\n        require(d.addr > address(0x0));\n        _;\n    }\n\n    // getter function for doctor's information\n    function getDoctorInfo() public view checkDoctor(msg.sender) returns(string memory, address[] memory) {\n        doctor memory d = doctors[msg.sender];\n        return (d.name, d.patient_list);\n    }\n\n    // Create a new doctor method\n    function signupDoctor(string memory _name, string memory _clinic) public returns(string memory, address, address[] memory, string memory) {\n        \n        // get doctor struct, make sure the name, clinic, and address exist\n        doctor memory d = doctors[msg.sender];\n        require(keccak256(abi.encodePacked(_name)) != keccak256(\"\"));\n        require(keccak256(abi.encodePacked(_clinic)) != keccak256(\"\"));\n        require(!(d.addr > address(0x0)));\n\n        // create doctor structure, return saved info\n        doctors[msg.sender] = doctor({name:_name, clinic:_clinic, addr:msg.sender, patient_list:new address[](0)});\n        return (doctors[msg.sender].name, doctors[msg.sender].addr, doctors[msg.sender].patient_list, doctors[msg.sender].clinic);\n    }\n\n    // File methods:\n\n    // method to test file contract\n    function testFile(string memory _file_contents, string memory _file_name) public returns(bytes32, string memory){\n        bytes32 file_hash = keccak256(abi.encodePacked(_file_contents));\n        fileHashDict[file_hash] = file({file_name:_file_name,record_type:\"blood test\",uploader:address(0x0),contents:_file_contents});\n        return (file_hash, \"Blood Test 1\");\n    }\n\n    // used for testing, get the hash of a file's contents\n    function getFileHash(string memory file_contents) public pure returns (bytes32) {\n        return keccak256(abi.encodePacked(file_contents));\n    }\n\n    // used for testing, get a file's name from the hash dictionary\n    function getFileName(bytes32 file_hash) public view checkFile(file_hash) returns (string memory) {\n        return fileHashDict[file_hash].file_name;\n    }\n\n    // make sure a file actually exists\n    modifier checkFile(bytes32 file_hash) {\n        bytes memory file_check = bytes(fileHashDict[file_hash].file_name);\n        require(file_check.length > 0);\n        _;\n    }\n\n    // given a file hash, get the file's name, type, and uploader\n    function getFileInfo(bytes32 file_hash) internal view checkFile(file_hash) returns(file memory) {\n        return fileHashDict[file_hash];\n    }\n\n    // Patient methods\n    // check that a given patient actually exists\n    modifier checkPatient(address addr) {\n        patient memory p = patients[addr];\n        require(p.addr > address(0x0));\n        _;\n    }\n\n    // get info for a given patient (name, age, files, list of whitelisted doctors)\n    function getPatientInfo() public view checkPatient(msg.sender) returns(string memory, uint8, bytes32[] memory, address[] memory) {\n        patient memory p = patients[msg.sender];\n        return (p.name, p.age, p.files, p.doctor_list);\n    }\n\n    // add a new patient\n    function signupPatient(string memory _name, uint8 _age) public returns(string memory, uint8, address, bytes32[] memory, address[] memory) {\n        // store msg.sender as a patient in memory\n        patient memory p = patients[msg.sender];\n        // make sure a patient with this addr doesn't already exist\n        require(!(p.addr > address(0x0)));\n\n        // check to make sure the patient has a valid name and age\n        require(keccak256(abi.encodePacked(_name)) != keccak256(\"\"));\n        require((_age > 0) && (_age < 120));\n\n        // add to patient dict\n        patients[msg.sender] = patient({name:_name,age:_age,addr:msg.sender,files:new bytes32[](0),doctor_list:new address[](0)});\n        return (patients[msg.sender].name, patients[msg.sender].age, patients[msg.sender].addr, patients[msg.sender].files, patients[msg.sender].doctor_list);\n    }\n\n\n    // Service methods\n\n    // message sender\n    address private owner;\n    \n    // set owner\n    constructor() public{\n        owner = msg.sender;\n    }\n\n    // make sure that the sender is the owner\n    modifier onlyOwner() {\n        require(msg.sender == owner);\n        _;\n    }\n\n    function testService() public view returns(address){\n        return msg.sender;\n    }\n\n    // add a file to a patient's list\n    function addFile(string memory _file_name, string memory _file_type, address _patient_addr, string memory _contents) public checkDoctor(msg.sender) {\n        bytes32 file_hash = keccak256(abi.encode(_contents));\n        // get the patient\n        patient storage pat = patients[_patient_addr];\n\n        // make sure the file doesn't already exist\n        require(patientToFile[_patient_addr][file_hash] < 1);\n      \n        // add this file to the file hash dict and the patient's file list\n        fileHashDict[file_hash] = file({file_name:_file_name, record_type:_file_type,uploader:msg.sender,contents:_contents});\n        uint file_pos = pat.files.push(file_hash);\n        // add the position in the file list to patientToFile mapping (avoid duplicates in future)\n        patientToFile[_patient_addr][file_hash] = file_pos;\n    }\n\n    // method to grant a doctor access to a patient's record\n    function grantDoctorAccess(address _doctor_address) public checkPatient(msg.sender) checkDoctor(msg.sender) {\n        // get struct for patient and doctor\n        patient storage p = patients[msg.sender];\n        doctor storage d = doctors[_doctor_address];\n        // check doctor does not already have access\n        require(patientToDoctor[msg.sender][_doctor_address] < 1);// this means doctor already been access\n        // get the index of doctor's position in patient's doctor_list\n        uint idx = p.doctor_list.push(_doctor_address);// new length of array\n        // add doctor to patient's doctor list\n        patientToDoctor[msg.sender][_doctor_address] = idx;\n        // add patient to doctor's patient list\n        d.patient_list.push(msg.sender);\n    }\n\n    // function to get patient info (a doctor requests)\n    function getPatientInfoForDoctor(address _patient_requested) public view checkPatient(_patient_requested) checkDoctor(msg.sender) returns(string memory, uint8, bytes32[] memory){\n        \n        // get the patient from the patient list\n        patient memory p = patients[_patient_requested];\n\n        // make sure the patient actually exists in this doctor's care circle\n        require(patientToDoctor[_patient_requested][msg.sender] > 0);\n\n        // return the patient's name, age, and files\n        return (p.name, p.age, p.files);\n    }\n\n    // function to get doctor info (for a patient) -- will see how necessary this ends up being\n    function getDoctorInfoForPatient(address _doctor_requested) public view checkPatient(msg.sender) checkDoctor(_doctor_requested) returns(string memory, string memory){\n        \n        // get the doctor from the doctors list\n        doctor memory d = doctors[_doctor_requested];\n\n        // make sure the doctor actually exists\n        require(doctorToPatient[_doctor_requested][msg.sender] > 0);\n\n        return (d.name, d.clinic);\n    }\n}",
  "sourcePath": "/Users/kevincai/Desktop/UCL/Dartmouth/Classes/SeniorDesignAndImplementationProject/Ok/decentralized-health-blockchain/contracts/Service.sol",
  "compiler": {
    "name": "solc",
    "version": "0.5.16+commit.9c3226ce.Emscripten.clang"
  },
  "schemaVersion": "3.4.3",
  "updatedAt": "2021-11-08T06:20:02.495Z",
  "networkType": "ethereum",
  "devdoc": {
    "methods": {}
  },
  "userdoc": {
    "methods": {}
  }
}